{"contracts/WWEMonad.sol":{"WWEMonad":{"abi":[{"inputs":[],"stateMutability":"nonpayable","type":"constructor"},{"inputs":[{"internalType":"address","name":"sender","type":"address"},{"internalType":"uint256","name":"balance","type":"uint256"},{"internalType":"uint256","name":"needed","type":"uint256"},{"internalType":"uint256","name":"tokenId","type":"uint256"}],"name":"ERC1155InsufficientBalance","type":"error"},{"inputs":[{"internalType":"address","name":"approver","type":"address"}],"name":"ERC1155InvalidApprover","type":"error"},{"inputs":[{"internalType":"uint256","name":"idsLength","type":"uint256"},{"internalType":"uint256","name":"valuesLength","type":"uint256"}],"name":"ERC1155InvalidArrayLength","type":"error"},{"inputs":[{"internalType":"address","name":"operator","type":"address"}],"name":"ERC1155InvalidOperator","type":"error"},{"inputs":[{"internalType":"address","name":"receiver","type":"address"}],"name":"ERC1155InvalidReceiver","type":"error"},{"inputs":[{"internalType":"address","name":"sender","type":"address"}],"name":"ERC1155InvalidSender","type":"error"},{"inputs":[{"internalType":"address","name":"operator","type":"address"},{"internalType":"address","name":"owner","type":"address"}],"name":"ERC1155MissingApprovalForAll","type":"error"},{"inputs":[{"internalType":"address","name":"owner","type":"address"}],"name":"OwnableInvalidOwner","type":"error"},{"inputs":[{"internalType":"address","name":"account","type":"address"}],"name":"OwnableUnauthorizedAccount","type":"error"},{"anonymous":false,"inputs":[{"indexed":true,"internalType":"address","name":"player","type":"address"},{"indexed":false,"internalType":"string","name":"action","type":"string"}],"name":"ActionLogged","type":"event"},{"anonymous":false,"inputs":[{"indexed":true,"internalType":"address","name":"account","type":"address"},{"indexed":true,"internalType":"address","name":"operator","type":"address"},{"indexed":false,"internalType":"bool","name":"approved","type":"bool"}],"name":"ApprovalForAll","type":"event"},{"anonymous":false,"inputs":[{"indexed":true,"internalType":"address","name":"previousOwner","type":"address"},{"indexed":true,"internalType":"address","name":"newOwner","type":"address"}],"name":"OwnershipTransferred","type":"event"},{"anonymous":false,"inputs":[{"indexed":true,"internalType":"address","name":"operator","type":"address"},{"indexed":true,"internalType":"address","name":"from","type":"address"},{"indexed":true,"internalType":"address","name":"to","type":"address"},{"indexed":false,"internalType":"uint256[]","name":"ids","type":"uint256[]"},{"indexed":false,"internalType":"uint256[]","name":"values","type":"uint256[]"}],"name":"TransferBatch","type":"event"},{"anonymous":false,"inputs":[{"indexed":true,"internalType":"address","name":"operator","type":"address"},{"indexed":true,"internalType":"address","name":"from","type":"address"},{"indexed":true,"internalType":"address","name":"to","type":"address"},{"indexed":false,"internalType":"uint256","name":"id","type":"uint256"},{"indexed":false,"internalType":"uint256","name":"value","type":"uint256"}],"name":"TransferSingle","type":"event"},{"anonymous":false,"inputs":[{"indexed":true,"internalType":"address","name":"player","type":"address"},{"indexed":false,"internalType":"uint256","name":"tokenId","type":"uint256"}],"name":"TrophyMinted","type":"event"},{"anonymous":false,"inputs":[{"indexed":false,"internalType":"string","name":"value","type":"string"},{"indexed":true,"internalType":"uint256","name":"id","type":"uint256"}],"name":"URI","type":"event"},{"inputs":[],"name":"CHAMPIONSHIP_TROPHY","outputs":[{"internalType":"uint256","name":"","type":"uint256"}],"stateMutability":"view","type":"function"},{"inputs":[{"internalType":"address","name":"account","type":"address"},{"internalType":"uint256","name":"id","type":"uint256"}],"name":"balanceOf","outputs":[{"internalType":"uint256","name":"","type":"uint256"}],"stateMutability":"view","type":"function"},{"inputs":[{"internalType":"address[]","name":"accounts","type":"address[]"},{"internalType":"uint256[]","name":"ids","type":"uint256[]"}],"name":"balanceOfBatch","outputs":[{"internalType":"uint256[]","name":"","type":"uint256[]"}],"stateMutability":"view","type":"function"},{"inputs":[{"internalType":"address","name":"player","type":"address"}],"name":"getPlayerStats","outputs":[{"components":[{"internalType":"uint256","name":"totalMoves","type":"uint256"},{"internalType":"uint256","name":"specialMoves","type":"uint256"},{"internalType":"uint256","name":"grapples","type":"uint256"},{"internalType":"uint256","name":"ropeBounces","type":"uint256"},{"internalType":"uint256","name":"knockouts","type":"uint256"},{"internalType":"uint256","name":"championships","type":"uint256"},{"internalType":"uint256","name":"lastAction","type":"uint256"}],"internalType":"struct WWEMonad.PlayerStats","name":"","type":"tuple"}],"stateMutability":"view","type":"function"},{"inputs":[{"internalType":"address","name":"account","type":"address"},{"internalType":"address","name":"operator","type":"address"}],"name":"isApprovedForAll","outputs":[{"internalType":"bool","name":"","type":"bool"}],"stateMutability":"view","type":"function"},{"inputs":[{"internalType":"string","name":"action","type":"string"}],"name":"logAction","outputs":[],"stateMutability":"nonpayable","type":"function"},{"inputs":[{"internalType":"address","name":"to","type":"address"},{"internalType":"uint256","name":"amount","type":"uint256"}],"name":"mintNewTrophy","outputs":[],"stateMutability":"nonpayable","type":"function"},{"inputs":[{"internalType":"address","name":"winner","type":"address"}],"name":"mintTrophy","outputs":[],"stateMutability":"nonpayable","type":"function"},{"inputs":[],"name":"owner","outputs":[{"internalType":"address","name":"","type":"address"}],"stateMutability":"view","type":"function"},{"inputs":[{"internalType":"address","name":"","type":"address"}],"name":"playerStats","outputs":[{"internalType":"uint256","name":"totalMoves","type":"uint256"},{"internalType":"uint256","name":"specialMoves","type":"uint256"},{"internalType":"uint256","name":"grapples","type":"uint256"},{"internalType":"uint256","name":"ropeBounces","type":"uint256"},{"internalType":"uint256","name":"knockouts","type":"uint256"},{"internalType":"uint256","name":"championships","type":"uint256"},{"internalType":"uint256","name":"lastAction","type":"uint256"}],"stateMutability":"view","type":"function"},{"inputs":[],"name":"renounceOwnership","outputs":[],"stateMutability":"nonpayable","type":"function"},{"inputs":[{"internalType":"address","name":"from","type":"address"},{"internalType":"address","name":"to","type":"address"},{"internalType":"uint256[]","name":"ids","type":"uint256[]"},{"internalType":"uint256[]","name":"values","type":"uint256[]"},{"internalType":"bytes","name":"data","type":"bytes"}],"name":"safeBatchTransferFrom","outputs":[],"stateMutability":"nonpayable","type":"function"},{"inputs":[{"internalType":"address","name":"from","type":"address"},{"internalType":"address","name":"to","type":"address"},{"internalType":"uint256","name":"id","type":"uint256"},{"internalType":"uint256","name":"value","type":"uint256"},{"internalType":"bytes","name":"data","type":"bytes"}],"name":"safeTransferFrom","outputs":[],"stateMutability":"nonpayable","type":"function"},{"inputs":[{"internalType":"address","name":"operator","type":"address"},{"internalType":"bool","name":"approved","type":"bool"}],"name":"setApprovalForAll","outputs":[],"stateMutability":"nonpayable","type":"function"},{"inputs":[{"internalType":"string","name":"_newBaseURI","type":"string"}],"name":"setBaseURI","outputs":[],"stateMutability":"nonpayable","type":"function"},{"inputs":[{"internalType":"bytes4","name":"interfaceId","type":"bytes4"}],"name":"supportsInterface","outputs":[{"internalType":"bool","name":"","type":"bool"}],"stateMutability":"view","type":"function"},{"inputs":[{"internalType":"address","name":"newOwner","type":"address"}],"name":"transferOwnership","outputs":[],"stateMutability":"nonpayable","type":"function"},{"inputs":[{"internalType":"uint256","name":"_id","type":"uint256"}],"name":"uri","outputs":[{"internalType":"string","name":"","type":"string"}],"stateMutability":"view","type":"function"}],"evm":{"bytecode":{"linkReferences":{},"object":"608060405260026004553480156200001657600080fd5b5060408051602081019091526000815233906200003381620000b9565b506001600160a01b0381166200006357604051631e4fbdf760e01b81526000600482015260240160405180910390fd5b6200006e81620000cb565b5060408051808201909152601881527f697066733a2f2f516d54726f7068794d657461646174612f00000000000000006020820152600590620000b29082620001c2565b506200028e565b6002620000c78282620001c2565b5050565b600380546001600160a01b038381166001600160a01b0319831681179093556040519116919082907f8be0079c531659141344cd1fd0a4f28419497f9722a3daafe3b4186f6b6457e090600090a35050565b634e487b7160e01b600052604160045260246000fd5b600181811c908216806200014857607f821691505b6020821081036200016957634e487b7160e01b600052602260045260246000fd5b50919050565b601f821115620001bd57600081815260208120601f850160051c81016020861015620001985750805b601f850160051c820191505b81811015620001b957828155600101620001a4565b5050505b505050565b81516001600160401b03811115620001de57620001de6200011d565b620001f681620001ef845462000133565b846200016f565b602080601f8311600181146200022e5760008415620002155750858301515b600019600386901b1c1916600185901b178555620001b9565b600085815260208120601f198616915b828110156200025f578886015182559484019460019091019084016200023e565b50858210156200027e5787850151600019600388901b60f8161c191681555b5050505050600190811b01905550565b611caf806200029e6000396000f3fe608060405234801561001057600080fd5b50600436106101155760003560e01c8063715018a6116100a2578063cdafbbb611610071578063cdafbbb6146102a3578063e985e9c514610328578063efb022231461033b578063f242432a14610343578063f2fde38b1461035657600080fd5b8063715018a61461025a5780638da5cb5b14610262578063a22cb4651461027d578063c90532541461029057600080fd5b80634e1273f4116100e95780634e1273f4146101985780634fd66eae146101b8578063522020a81461022157806355f804b314610234578063662b1c581461024757600080fd5b8062fdd58e1461011a57806301ffc9a7146101405780630e89341c146101635780632eb2c2d614610183575b600080fd5b61012d61012836600461141e565b610369565b6040519081526020015b60405180910390f35b61015361014e36600461145e565b610391565b6040519015158152602001610137565b610176610171366004611482565b6103e1565b60405161013791906114eb565b61019661019136600461164c565b610415565b005b6101ab6101a63660046116f6565b610481565b60405161013791906117f1565b6101cb6101c6366004611804565b610556565b6040516101379190600060e082019050825182526020830151602083015260408301516040830152606083015160608301526080830151608083015260a083015160a083015260c083015160c083015292915050565b61019661022f36600461181f565b6105ff565b61019661024236600461181f565b610854565b61019661025536600461141e565b61086c565b6101966108ee565b6003546040516001600160a01b039091168152602001610137565b61019661028b366004611870565b610902565b61019661029e366004611804565b61090d565b6102f36102b1366004611804565b60066020528060005260406000206000915090508060000154908060010154908060020154908060030154908060040154908060050154908060060154905087565b604080519788526020880196909652948601939093526060850191909152608084015260a083015260c082015260e001610137565b6101536103363660046118ac565b610a09565b61012d600181565b6101966103513660046118df565b610a37565b610196610364366004611804565b610a96565b6000818152602081815260408083206001600160a01b03861684529091529020545b92915050565b60006001600160e01b03198216636cdb3d1360e11b14806103c257506001600160e01b031982166303a24d0760e21b145b8061038b57506301ffc9a760e01b6001600160e01b031983161461038b565b606060056103ee83610ad4565b6040516020016103ff92919061197e565b6040516020818303038152906040529050919050565b336001600160a01b038616811480159061043657506104348682610a09565b155b1561046c5760405163711bec9160e11b81526001600160a01b038083166004830152871660248201526044015b60405180910390fd5b6104798686868686610b67565b505050505050565b606081518351146104b25781518351604051635b05999160e01b815260048101929092526024820152604401610463565b6000835167ffffffffffffffff8111156104ce576104ce6114fe565b6040519080825280602002602001820160405280156104f7578160200160208202803683370190505b50905060005b845181101561054e5760208082028601015161052190602080840287010151610369565b82828151811061053357610533611a15565b602090810291909101015261054781611a41565b90506104fd565b509392505050565b6105966040518060e00160405280600081526020016000815260200160008152602001600081526020016000815260200160008152602001600081525090565b506001600160a01b0316600090815260066020818152604092839020835160e081018552815481526001820154928101929092526002810154938201939093526003830154606082015260048301546080820152600583015460a082015291015460c082015290565b600061062782604051806040016040528060048152602001636d6f766560e01b815250610bce565b90506000610659836040518060400160405280600c81526020016b7370656369616c5f6d6f766560a01b815250610bce565b90506000610686846040518060400160405280600781526020016667726170706c6560c81b815250610bce565b905060006106b7856040518060400160405280600b81526020016a726f70655f626f756e636560a81b815250610bce565b905060006106e586604051806040016040528060088152602001671adb9bd8dadbdd5d60c21b815250610bce565b90506000610717876040518060400160405280600c81526020016b06368616d70696f6e736869760a41b815250610bce565b905085156107445733600090815260066020526040812080549161073a83611a41565b91905055506107fe565b84156107685733600090815260066020526040812060010180549161073a83611a41565b831561078c5733600090815260066020526040812060020180549161073a83611a41565b82156107b05733600090815260066020526040812060030180549161073a83611a41565b81156107d45733600090815260066020526040812060040180549161073a83611a41565b80156107fe573360009081526006602052604081206005018054916107f883611a41565b91905055505b3360008181526006602081905260409182902042910155517fcf4427363692826484588652734fbdfe66066252ce5898a5c9d20416bcadec5390610843908a906114eb565b60405180910390a250505050505050565b61085c610cad565b60056108688282611aa5565b5050565b610874610cad565b60048054908190600061088683611a41565b91905055506108a683828460405180602001604052806000815250610cda565b826001600160a01b03167f40e0fad75d161c82d49af9e03ec076efa4ff442a3954c75339fd02218374e2dc826040516108e191815260200190565b60405180910390a2505050565b6108f6610cad565b6109006000610d37565b565b610868338383610d89565b6003546001600160a01b031633148061092e5750336001600160a01b038216145b61097a5760405162461bcd60e51b815260206004820152601d60248201527f4e6f7420617574686f72697a656420746f206d696e742074726f7068790000006044820152606401610463565b6109968160018060405180602001604052806000815250610cda565b6001600160a01b03811660009081526006602052604081206005018054916109bd83611a41565b9190505550806001600160a01b03167f40e0fad75d161c82d49af9e03ec076efa4ff442a3954c75339fd02218374e2dc60016040516109fe91815260200190565b60405180910390a250565b6001600160a01b03918216600090815260016020908152604080832093909416825291909152205460ff1690565b336001600160a01b0386168114801590610a585750610a568682610a09565b155b15610a895760405163711bec9160e11b81526001600160a01b03808316600483015287166024820152604401610463565b6104798686868686610e1f565b610a9e610cad565b6001600160a01b038116610ac857604051631e4fbdf760e01b815260006004820152602401610463565b610ad181610d37565b50565b60606000610ae183610ead565b600101905060008167ffffffffffffffff811115610b0157610b016114fe565b6040519080825280601f01601f191660200182016040528015610b2b576020820181803683370190505b5090508181016020015b600019016f181899199a1a9b1b9c1cb0b131b232b360811b600a86061a8153600a8504945084610b3557509392505050565b6001600160a01b038416610b9157604051632bfa23e760e11b815260006004820152602401610463565b6001600160a01b038516610bba57604051626a0d4560e21b815260006004820152602401610463565b610bc78585858585610f85565b5050505050565b81518151600091849184911015610bea5760009250505061038b565b60005b81518351610bfb9190611b65565b8111610ca157600160005b8351811015610c7a57838181518110610c2157610c21611a15565b01602001516001600160f81b03191685610c3b8386611b78565b81518110610c4b57610c4b611a15565b01602001516001600160f81b03191614610c685760009150610c7a565b80610c7281611a41565b915050610c06565b508015610c8e57600194505050505061038b565b5080610c9981611a41565b915050610bed565b50600095945050505050565b6003546001600160a01b031633146109005760405163118cdaa760e01b8152336004820152602401610463565b6001600160a01b038416610d0457604051632bfa23e760e11b815260006004820152602401610463565b60408051600180825260208201869052818301908152606082018590526080820190925290610479600087848487610f85565b600380546001600160a01b038381166001600160a01b0319831681179093556040519116919082907f8be0079c531659141344cd1fd0a4f28419497f9722a3daafe3b4186f6b6457e090600090a35050565b6001600160a01b038216610db25760405162ced3e160e81b815260006004820152602401610463565b6001600160a01b03838116600081815260016020908152604080832094871680845294825291829020805460ff191686151590811790915591519182527f17307eab39ab6107e8899845ad3d59bd9653f200f220920489ca2b5937696c31910160405180910390a3505050565b6001600160a01b038416610e4957604051632bfa23e760e11b815260006004820152602401610463565b6001600160a01b038516610e7257604051626a0d4560e21b815260006004820152602401610463565b60408051600180825260208201869052818301908152606082018590526080820190925290610ea48787848487610f85565b50505050505050565b60008072184f03e93ff9f4daa797ed6e38ed64bf6a1f0160401b8310610eec5772184f03e93ff9f4daa797ed6e38ed64bf6a1f0160401b830492506040015b6d04ee2d6d415b85acef81000000008310610f18576d04ee2d6d415b85acef8100000000830492506020015b662386f26fc100008310610f3657662386f26fc10000830492506010015b6305f5e1008310610f4e576305f5e100830492506008015b6127108310610f6257612710830492506004015b60648310610f74576064830492506002015b600a831061038b5760010192915050565b610f9185858585610fd8565b6001600160a01b03841615610bc75782513390600103610fca5760208481015190840151610fc38389898585896111f5565b5050610479565b610479818787878787611319565b80518251146110075781518151604051635b05999160e01b815260048101929092526024820152604401610463565b3360005b8351811015611116576020818102858101820151908501909101516001600160a01b038816156110be576000828152602081815260408083206001600160a01b038c16845290915290205481811015611097576040516303dee4c560e01b81526001600160a01b038a166004820152602481018290526044810183905260648101849052608401610463565b6000838152602081815260408083206001600160a01b038d16845290915290209082900390555b6001600160a01b03871615611103576000828152602081815260408083206001600160a01b038b168452909152812080548392906110fd908490611b78565b90915550505b50508061110f90611a41565b905061100b565b5082516001036111975760208301516000906020840151909150856001600160a01b0316876001600160a01b0316846001600160a01b03167fc3d58168c5ae7397731d063d5bbf3d657854427343f4c083240f7aacaa2d0f628585604051611188929190918252602082015260400190565b60405180910390a45050610bc7565b836001600160a01b0316856001600160a01b0316826001600160a01b03167f4a39dc06d4c0dbc64b70af90fd698a233a518aa5d07e595d983b8c0526c8f7fb86866040516111e6929190611b8b565b60405180910390a45050505050565b6001600160a01b0384163b156104795760405163f23a6e6160e01b81526001600160a01b0385169063f23a6e61906112399089908990889088908890600401611bb9565b6020604051808303816000875af1925050508015611274575060408051601f3d908101601f1916820190925261127191810190611bfe565b60015b6112dd573d8080156112a2576040519150601f19603f3d011682016040523d82523d6000602084013e6112a7565b606091505b5080516000036112d557604051632bfa23e760e11b81526001600160a01b0386166004820152602401610463565b805181602001fd5b6001600160e01b0319811663f23a6e6160e01b14610ea457604051632bfa23e760e11b81526001600160a01b0386166004820152602401610463565b6001600160a01b0384163b156104795760405163bc197c8160e01b81526001600160a01b0385169063bc197c819061135d9089908990889088908890600401611c1b565b6020604051808303816000875af1925050508015611398575060408051601f3d908101601f1916820190925261139591810190611bfe565b60015b6113c6573d8080156112a2576040519150601f19603f3d011682016040523d82523d6000602084013e6112a7565b6001600160e01b0319811663bc197c8160e01b14610ea457604051632bfa23e760e11b81526001600160a01b0386166004820152602401610463565b80356001600160a01b038116811461141957600080fd5b919050565b6000806040838503121561143157600080fd5b61143a83611402565b946020939093013593505050565b6001600160e01b031981168114610ad157600080fd5b60006020828403121561147057600080fd5b813561147b81611448565b9392505050565b60006020828403121561149457600080fd5b5035919050565b60005b838110156114b657818101518382015260200161149e565b50506000910152565b600081518084526114d781602086016020860161149b565b601f01601f19169290920160200192915050565b60208152600061147b60208301846114bf565b634e487b7160e01b600052604160045260246000fd5b604051601f8201601f1916810167ffffffffffffffff8111828210171561153d5761153d6114fe565b604052919050565b600067ffffffffffffffff82111561155f5761155f6114fe565b5060051b60200190565b600082601f83011261157a57600080fd5b8135602061158f61158a83611545565b611514565b82815260059290921b840181019181810190868411156115ae57600080fd5b8286015b848110156115c957803583529183019183016115b2565b509695505050505050565b600067ffffffffffffffff8311156115ee576115ee6114fe565b611601601f8401601f1916602001611514565b905082815283838301111561161557600080fd5b828260208301376000602084830101529392505050565b600082601f83011261163d57600080fd5b61147b838335602085016115d4565b600080600080600060a0868803121561166457600080fd5b61166d86611402565b945061167b60208701611402565b9350604086013567ffffffffffffffff8082111561169857600080fd5b6116a489838a01611569565b945060608801359150808211156116ba57600080fd5b6116c689838a01611569565b935060808801359150808211156116dc57600080fd5b506116e98882890161162c565b9150509295509295909350565b6000806040838503121561170957600080fd5b823567ffffffffffffffff8082111561172157600080fd5b818501915085601f83011261173557600080fd5b8135602061174561158a83611545565b82815260059290921b8401810191818101908984111561176457600080fd5b948201945b838610156117895761177a86611402565b82529482019490820190611769565b9650508601359250508082111561179f57600080fd5b506117ac85828601611569565b9150509250929050565b600081518084526020808501945080840160005b838110156117e6578151875295820195908201906001016117ca565b509495945050505050565b60208152600061147b60208301846117b6565b60006020828403121561181657600080fd5b61147b82611402565b60006020828403121561183157600080fd5b813567ffffffffffffffff81111561184857600080fd5b8201601f8101841361185957600080fd5b611868848235602084016115d4565b949350505050565b6000806040838503121561188357600080fd5b61188c83611402565b9150602083013580151581146118a157600080fd5b809150509250929050565b600080604083850312156118bf57600080fd5b6118c883611402565b91506118d660208401611402565b90509250929050565b600080600080600060a086880312156118f757600080fd5b61190086611402565b945061190e60208701611402565b93506040860135925060608601359150608086013567ffffffffffffffff81111561193857600080fd5b6116e98882890161162c565b600181811c9082168061195857607f821691505b60208210810361197857634e487b7160e01b600052602260045260246000fd5b50919050565b600080845461198c81611944565b600182811680156119a457600181146119b9576119e8565b60ff19841687528215158302870194506119e8565b8860005260208060002060005b858110156119df5781548a8201529084019082016119c6565b50505082870194505b5050505083516119fc81836020880161149b565b64173539b7b760d91b9101908152600501949350505050565b634e487b7160e01b600052603260045260246000fd5b634e487b7160e01b600052601160045260246000fd5b600060018201611a5357611a53611a2b565b5060010190565b601f821115611aa057600081815260208120601f850160051c81016020861015611a815750805b601f850160051c820191505b8181101561047957828155600101611a8d565b505050565b815167ffffffffffffffff811115611abf57611abf6114fe565b611ad381611acd8454611944565b84611a5a565b602080601f831160018114611b085760008415611af05750858301515b600019600386901b1c1916600185901b178555610479565b600085815260208120601f198616915b82811015611b3757888601518255948401946001909101908401611b18565b5085821015611b555787850151600019600388901b60f8161c191681555b5050505050600190811b01905550565b8181038181111561038b5761038b611a2b565b8082018082111561038b5761038b611a2b565b604081526000611b9e60408301856117b6565b8281036020840152611bb081856117b6565b95945050505050565b6001600160a01b03868116825285166020820152604081018490526060810183905260a060808201819052600090611bf3908301846114bf565b979650505050505050565b600060208284031215611c1057600080fd5b815161147b81611448565b6001600160a01b0386811682528516602082015260a060408201819052600090611c47908301866117b6565b8281036060840152611c5981866117b6565b90508281036080840152611c6d81856114bf565b9897505050505050505056fea264697066735822122059c6509a6ee4267197c02201b35c206c942c012ef75fb3a509b3f95eba91dad964736f6c63430008140033","opcodes":"PUSH1 0x80 PUSH1 0x40 MSTORE PUSH1 0x2 PUSH1 0x4 SSTORE CALLVALUE DUP1 ISZERO PUSH3 0x16 JUMPI PUSH1 0x0 DUP1 REVERT JUMPDEST POP PUSH1 0x40 DUP1 MLOAD PUSH1 0x20 DUP2 ADD SWAP1 SWAP2 MSTORE PUSH1 0x0 DUP2 MSTORE CALLER SWAP1 PUSH3 0x33 DUP2 PUSH3 0xB9 JUMP JUMPDEST POP PUSH1 0x1 PUSH1 0x1 PUSH1 0xA0 SHL SUB DUP2 AND PUSH3 0x63 JUMPI PUSH1 0x40 MLOAD PUSH4 0x1E4FBDF7 PUSH1 0xE0 SHL DUP2 MSTORE PUSH1 0x0 PUSH1 0x4 DUP3 ADD MSTORE PUSH1 0x24 ADD PUSH1 0x40 MLOAD DUP1 SWAP2 SUB SWAP1 REVERT JUMPDEST PUSH3 0x6E DUP2 PUSH3 0xCB JUMP JUMPDEST POP PUSH1 0x40 DUP1 MLOAD DUP1 DUP3 ADD SWAP1 SWAP2 MSTORE PUSH1 0x18 DUP2 MSTORE PUSH32 0x697066733A2F2F516D54726F7068794D657461646174612F0000000000000000 PUSH1 0x20 DUP3 ADD MSTORE PUSH1 0x5 SWAP1 PUSH3 0xB2 SWAP1 DUP3 PUSH3 0x1C2 JUMP JUMPDEST POP PUSH3 0x28E JUMP JUMPDEST PUSH1 0x2 PUSH3 0xC7 DUP3 DUP3 PUSH3 0x1C2 JUMP JUMPDEST POP POP JUMP JUMPDEST PUSH1 0x3 DUP1 SLOAD PUSH1 0x1 PUSH1 0x1 PUSH1 0xA0 SHL SUB DUP4 DUP2 AND PUSH1 0x1 PUSH1 0x1 PUSH1 0xA0 SHL SUB NOT DUP4 AND DUP2 OR SWAP1 SWAP4 SSTORE PUSH1 0x40 MLOAD SWAP2 AND SWAP2 SWAP1 DUP3 SWAP1 PUSH32 0x8BE0079C531659141344CD1FD0A4F28419497F9722A3DAAFE3B4186F6B6457E0 SWAP1 PUSH1 0x0 SWAP1 LOG3 POP POP JUMP JUMPDEST PUSH4 0x4E487B71 PUSH1 0xE0 SHL PUSH1 0x0 MSTORE PUSH1 0x41 PUSH1 0x4 MSTORE PUSH1 0x24 PUSH1 0x0 REVERT JUMPDEST PUSH1 0x1 DUP2 DUP2 SHR SWAP1 DUP3 AND DUP1 PUSH3 0x148 JUMPI PUSH1 0x7F DUP3 AND SWAP2 POP JUMPDEST PUSH1 0x20 DUP3 LT DUP2 SUB PUSH3 0x169 JUMPI PUSH4 0x4E487B71 PUSH1 0xE0 SHL PUSH1 0x0 MSTORE PUSH1 0x22 PUSH1 0x4 MSTORE PUSH1 0x24 PUSH1 0x0 REVERT JUMPDEST POP SWAP2 SWAP1 POP JUMP JUMPDEST PUSH1 0x1F DUP3 GT ISZERO PUSH3 0x1BD JUMPI PUSH1 0x0 DUP2 DUP2 MSTORE PUSH1 0x20 DUP2 KECCAK256 PUSH1 0x1F DUP6 ADD PUSH1 0x5 SHR DUP2 ADD PUSH1 0x20 DUP7 LT ISZERO PUSH3 0x198 JUMPI POP DUP1 JUMPDEST PUSH1 0x1F DUP6 ADD PUSH1 0x5 SHR DUP3 ADD SWAP2 POP JUMPDEST DUP2 DUP2 LT ISZERO PUSH3 0x1B9 JUMPI DUP3 DUP2 SSTORE PUSH1 0x1 ADD PUSH3 0x1A4 JUMP JUMPDEST POP POP POP JUMPDEST POP POP POP JUMP JUMPDEST DUP2 MLOAD PUSH1 0x1 PUSH1 0x1 PUSH1 0x40 SHL SUB DUP2 GT ISZERO PUSH3 0x1DE JUMPI PUSH3 0x1DE PUSH3 0x11D JUMP JUMPDEST PUSH3 0x1F6 DUP2 PUSH3 0x1EF DUP5 SLOAD PUSH3 0x133 JUMP JUMPDEST DUP5 PUSH3 0x16F JUMP JUMPDEST PUSH1 0x20 DUP1 PUSH1 0x1F DUP4 GT PUSH1 0x1 DUP2 EQ PUSH3 0x22E JUMPI PUSH1 0x0 DUP5 ISZERO PUSH3 0x215 JUMPI POP DUP6 DUP4 ADD MLOAD JUMPDEST PUSH1 0x0 NOT PUSH1 0x3 DUP7 SWAP1 SHL SHR NOT AND PUSH1 0x1 DUP6 SWAP1 SHL OR DUP6 SSTORE PUSH3 0x1B9 JUMP JUMPDEST PUSH1 0x0 DUP6 DUP2 MSTORE PUSH1 0x20 DUP2 KECCAK256 PUSH1 0x1F NOT DUP7 AND SWAP2 JUMPDEST DUP3 DUP2 LT ISZERO PUSH3 0x25F JUMPI DUP9 DUP7 ADD MLOAD DUP3 SSTORE SWAP5 DUP5 ADD SWAP5 PUSH1 0x1 SWAP1 SWAP2 ADD SWAP1 DUP5 ADD PUSH3 0x23E JUMP JUMPDEST POP DUP6 DUP3 LT ISZERO PUSH3 0x27E JUMPI DUP8 DUP6 ADD MLOAD PUSH1 0x0 NOT PUSH1 0x3 DUP9 SWAP1 SHL PUSH1 0xF8 AND SHR NOT AND DUP2 SSTORE JUMPDEST POP POP POP POP POP PUSH1 0x1 SWAP1 DUP2 SHL ADD SWAP1 SSTORE POP JUMP JUMPDEST PUSH2 0x1CAF DUP1 PUSH3 0x29E PUSH1 0x0 CODECOPY PUSH1 0x0 RETURN INVALID PUSH1 0x80 PUSH1 0x40 MSTORE CALLVALUE DUP1 ISZERO PUSH2 0x10 JUMPI PUSH1 0x0 DUP1 REVERT JUMPDEST POP PUSH1 0x4 CALLDATASIZE LT PUSH2 0x115 JUMPI PUSH1 0x0 CALLDATALOAD PUSH1 0xE0 SHR DUP1 PUSH4 0x715018A6 GT PUSH2 0xA2 JUMPI DUP1 PUSH4 0xCDAFBBB6 GT PUSH2 0x71 JUMPI DUP1 PUSH4 0xCDAFBBB6 EQ PUSH2 0x2A3 JUMPI DUP1 PUSH4 0xE985E9C5 EQ PUSH2 0x328 JUMPI DUP1 PUSH4 0xEFB02223 EQ PUSH2 0x33B JUMPI DUP1 PUSH4 0xF242432A EQ PUSH2 0x343 JUMPI DUP1 PUSH4 0xF2FDE38B EQ PUSH2 0x356 JUMPI PUSH1 0x0 DUP1 REVERT JUMPDEST DUP1 PUSH4 0x715018A6 EQ PUSH2 0x25A JUMPI DUP1 PUSH4 0x8DA5CB5B EQ PUSH2 0x262 JUMPI DUP1 PUSH4 0xA22CB465 EQ PUSH2 0x27D JUMPI DUP1 PUSH4 0xC9053254 EQ PUSH2 0x290 JUMPI PUSH1 0x0 DUP1 REVERT JUMPDEST DUP1 PUSH4 0x4E1273F4 GT PUSH2 0xE9 JUMPI DUP1 PUSH4 0x4E1273F4 EQ PUSH2 0x198 JUMPI DUP1 PUSH4 0x4FD66EAE EQ PUSH2 0x1B8 JUMPI DUP1 PUSH4 0x522020A8 EQ PUSH2 0x221 JUMPI DUP1 PUSH4 0x55F804B3 EQ PUSH2 0x234 JUMPI DUP1 PUSH4 0x662B1C58 EQ PUSH2 0x247 JUMPI PUSH1 0x0 DUP1 REVERT JUMPDEST DUP1 PUSH3 0xFDD58E EQ PUSH2 0x11A JUMPI DUP1 PUSH4 0x1FFC9A7 EQ PUSH2 0x140 JUMPI DUP1 PUSH4 0xE89341C EQ PUSH2 0x163 JUMPI DUP1 PUSH4 0x2EB2C2D6 EQ PUSH2 0x183 JUMPI JUMPDEST PUSH1 0x0 DUP1 REVERT JUMPDEST PUSH2 0x12D PUSH2 0x128 CALLDATASIZE PUSH1 0x4 PUSH2 0x141E JUMP JUMPDEST PUSH2 0x369 JUMP JUMPDEST PUSH1 0x40 MLOAD SWAP1 DUP2 MSTORE PUSH1 0x20 ADD JUMPDEST PUSH1 0x40 MLOAD DUP1 SWAP2 SUB SWAP1 RETURN JUMPDEST PUSH2 0x153 PUSH2 0x14E CALLDATASIZE PUSH1 0x4 PUSH2 0x145E JUMP JUMPDEST PUSH2 0x391 JUMP JUMPDEST PUSH1 0x40 MLOAD SWAP1 ISZERO ISZERO DUP2 MSTORE PUSH1 0x20 ADD PUSH2 0x137 JUMP JUMPDEST PUSH2 0x176 PUSH2 0x171 CALLDATASIZE PUSH1 0x4 PUSH2 0x1482 JUMP JUMPDEST PUSH2 0x3E1 JUMP JUMPDEST PUSH1 0x40 MLOAD PUSH2 0x137 SWAP2 SWAP1 PUSH2 0x14EB JUMP JUMPDEST PUSH2 0x196 PUSH2 0x191 CALLDATASIZE PUSH1 0x4 PUSH2 0x164C JUMP JUMPDEST PUSH2 0x415 JUMP JUMPDEST STOP JUMPDEST PUSH2 0x1AB PUSH2 0x1A6 CALLDATASIZE PUSH1 0x4 PUSH2 0x16F6 JUMP JUMPDEST PUSH2 0x481 JUMP JUMPDEST PUSH1 0x40 MLOAD PUSH2 0x137 SWAP2 SWAP1 PUSH2 0x17F1 JUMP JUMPDEST PUSH2 0x1CB PUSH2 0x1C6 CALLDATASIZE PUSH1 0x4 PUSH2 0x1804 JUMP JUMPDEST PUSH2 0x556 JUMP JUMPDEST PUSH1 0x40 MLOAD PUSH2 0x137 SWAP2 SWAP1 PUSH1 0x0 PUSH1 0xE0 DUP3 ADD SWAP1 POP DUP3 MLOAD DUP3 MSTORE PUSH1 0x20 DUP4 ADD MLOAD PUSH1 0x20 DUP4 ADD MSTORE PUSH1 0x40 DUP4 ADD MLOAD PUSH1 0x40 DUP4 ADD MSTORE PUSH1 0x60 DUP4 ADD MLOAD PUSH1 0x60 DUP4 ADD MSTORE PUSH1 0x80 DUP4 ADD MLOAD PUSH1 0x80 DUP4 ADD MSTORE PUSH1 0xA0 DUP4 ADD MLOAD PUSH1 0xA0 DUP4 ADD MSTORE PUSH1 0xC0 DUP4 ADD MLOAD PUSH1 0xC0 DUP4 ADD MSTORE SWAP3 SWAP2 POP POP JUMP JUMPDEST PUSH2 0x196 PUSH2 0x22F CALLDATASIZE PUSH1 0x4 PUSH2 0x181F JUMP JUMPDEST PUSH2 0x5FF JUMP JUMPDEST PUSH2 0x196 PUSH2 0x242 CALLDATASIZE PUSH1 0x4 PUSH2 0x181F JUMP JUMPDEST PUSH2 0x854 JUMP JUMPDEST PUSH2 0x196 PUSH2 0x255 CALLDATASIZE PUSH1 0x4 PUSH2 0x141E JUMP JUMPDEST PUSH2 0x86C JUMP JUMPDEST PUSH2 0x196 PUSH2 0x8EE JUMP JUMPDEST PUSH1 0x3 SLOAD PUSH1 0x40 MLOAD PUSH1 0x1 PUSH1 0x1 PUSH1 0xA0 SHL SUB SWAP1 SWAP2 AND DUP2 MSTORE PUSH1 0x20 ADD PUSH2 0x137 JUMP JUMPDEST PUSH2 0x196 PUSH2 0x28B CALLDATASIZE PUSH1 0x4 PUSH2 0x1870 JUMP JUMPDEST PUSH2 0x902 JUMP JUMPDEST PUSH2 0x196 PUSH2 0x29E CALLDATASIZE PUSH1 0x4 PUSH2 0x1804 JUMP JUMPDEST PUSH2 0x90D JUMP JUMPDEST PUSH2 0x2F3 PUSH2 0x2B1 CALLDATASIZE PUSH1 0x4 PUSH2 0x1804 JUMP JUMPDEST PUSH1 0x6 PUSH1 0x20 MSTORE DUP1 PUSH1 0x0 MSTORE PUSH1 0x40 PUSH1 0x0 KECCAK256 PUSH1 0x0 SWAP2 POP SWAP1 POP DUP1 PUSH1 0x0 ADD SLOAD SWAP1 DUP1 PUSH1 0x1 ADD SLOAD SWAP1 DUP1 PUSH1 0x2 ADD SLOAD SWAP1 DUP1 PUSH1 0x3 ADD SLOAD SWAP1 DUP1 PUSH1 0x4 ADD SLOAD SWAP1 DUP1 PUSH1 0x5 ADD SLOAD SWAP1 DUP1 PUSH1 0x6 ADD SLOAD SWAP1 POP DUP8 JUMP JUMPDEST PUSH1 0x40 DUP1 MLOAD SWAP8 DUP9 MSTORE PUSH1 0x20 DUP9 ADD SWAP7 SWAP1 SWAP7 MSTORE SWAP5 DUP7 ADD SWAP4 SWAP1 SWAP4 MSTORE PUSH1 0x60 DUP6 ADD SWAP2 SWAP1 SWAP2 MSTORE PUSH1 0x80 DUP5 ADD MSTORE PUSH1 0xA0 DUP4 ADD MSTORE PUSH1 0xC0 DUP3 ADD MSTORE PUSH1 0xE0 ADD PUSH2 0x137 JUMP JUMPDEST PUSH2 0x153 PUSH2 0x336 CALLDATASIZE PUSH1 0x4 PUSH2 0x18AC JUMP JUMPDEST PUSH2 0xA09 JUMP JUMPDEST PUSH2 0x12D PUSH1 0x1 DUP2 JUMP JUMPDEST PUSH2 0x196 PUSH2 0x351 CALLDATASIZE PUSH1 0x4 PUSH2 0x18DF JUMP JUMPDEST PUSH2 0xA37 JUMP JUMPDEST PUSH2 0x196 PUSH2 0x364 CALLDATASIZE PUSH1 0x4 PUSH2 0x1804 JUMP JUMPDEST PUSH2 0xA96 JUMP JUMPDEST PUSH1 0x0 DUP2 DUP2 MSTORE PUSH1 0x20 DUP2 DUP2 MSTORE PUSH1 0x40 DUP1 DUP4 KECCAK256 PUSH1 0x1 PUSH1 0x1 PUSH1 0xA0 SHL SUB DUP7 AND DUP5 MSTORE SWAP1 SWAP2 MSTORE SWAP1 KECCAK256 SLOAD JUMPDEST SWAP3 SWAP2 POP POP JUMP JUMPDEST PUSH1 0x0 PUSH1 0x1 PUSH1 0x1 PUSH1 0xE0 SHL SUB NOT DUP3 AND PUSH4 0x6CDB3D13 PUSH1 0xE1 SHL EQ DUP1 PUSH2 0x3C2 JUMPI POP PUSH1 0x1 PUSH1 0x1 PUSH1 0xE0 SHL SUB NOT DUP3 AND PUSH4 0x3A24D07 PUSH1 0xE2 SHL EQ JUMPDEST DUP1 PUSH2 0x38B JUMPI POP PUSH4 0x1FFC9A7 PUSH1 0xE0 SHL PUSH1 0x1 PUSH1 0x1 PUSH1 0xE0 SHL SUB NOT DUP4 AND EQ PUSH2 0x38B JUMP JUMPDEST PUSH1 0x60 PUSH1 0x5 PUSH2 0x3EE DUP4 PUSH2 0xAD4 JUMP JUMPDEST PUSH1 0x40 MLOAD PUSH1 0x20 ADD PUSH2 0x3FF SWAP3 SWAP2 SWAP1 PUSH2 0x197E JUMP JUMPDEST PUSH1 0x40 MLOAD PUSH1 0x20 DUP2 DUP4 SUB SUB DUP2 MSTORE SWAP1 PUSH1 0x40 MSTORE SWAP1 POP SWAP2 SWAP1 POP JUMP JUMPDEST CALLER PUSH1 0x1 PUSH1 0x1 PUSH1 0xA0 SHL SUB DUP7 AND DUP2 EQ DUP1 ISZERO SWAP1 PUSH2 0x436 JUMPI POP PUSH2 0x434 DUP7 DUP3 PUSH2 0xA09 JUMP JUMPDEST ISZERO JUMPDEST ISZERO PUSH2 0x46C JUMPI PUSH1 0x40 MLOAD PUSH4 0x711BEC91 PUSH1 0xE1 SHL DUP2 MSTORE PUSH1 0x1 PUSH1 0x1 PUSH1 0xA0 SHL SUB DUP1 DUP4 AND PUSH1 0x4 DUP4 ADD MSTORE DUP8 AND PUSH1 0x24 DUP3 ADD MSTORE PUSH1 0x44 ADD JUMPDEST PUSH1 0x40 MLOAD DUP1 SWAP2 SUB SWAP1 REVERT JUMPDEST PUSH2 0x479 DUP7 DUP7 DUP7 DUP7 DUP7 PUSH2 0xB67 JUMP JUMPDEST POP POP POP POP POP POP JUMP JUMPDEST PUSH1 0x60 DUP2 MLOAD DUP4 MLOAD EQ PUSH2 0x4B2 JUMPI DUP2 MLOAD DUP4 MLOAD PUSH1 0x40 MLOAD PUSH4 0x5B059991 PUSH1 0xE0 SHL DUP2 MSTORE PUSH1 0x4 DUP2 ADD SWAP3 SWAP1 SWAP3 MSTORE PUSH1 0x24 DUP3 ADD MSTORE PUSH1 0x44 ADD PUSH2 0x463 JUMP JUMPDEST PUSH1 0x0 DUP4 MLOAD PUSH8 0xFFFFFFFFFFFFFFFF DUP2 GT ISZERO PUSH2 0x4CE JUMPI PUSH2 0x4CE PUSH2 0x14FE JUMP JUMPDEST PUSH1 0x40 MLOAD SWAP1 DUP1 DUP3 MSTORE DUP1 PUSH1 0x20 MUL PUSH1 0x20 ADD DUP3 ADD PUSH1 0x40 MSTORE DUP1 ISZERO PUSH2 0x4F7 JUMPI DUP2 PUSH1 0x20 ADD PUSH1 0x20 DUP3 MUL DUP1 CALLDATASIZE DUP4 CALLDATACOPY ADD SWAP1 POP JUMPDEST POP SWAP1 POP PUSH1 0x0 JUMPDEST DUP5 MLOAD DUP2 LT ISZERO PUSH2 0x54E JUMPI PUSH1 0x20 DUP1 DUP3 MUL DUP7 ADD ADD MLOAD PUSH2 0x521 SWAP1 PUSH1 0x20 DUP1 DUP5 MUL DUP8 ADD ADD MLOAD PUSH2 0x369 JUMP JUMPDEST DUP3 DUP3 DUP2 MLOAD DUP2 LT PUSH2 0x533 JUMPI PUSH2 0x533 PUSH2 0x1A15 JUMP JUMPDEST PUSH1 0x20 SWAP1 DUP2 MUL SWAP2 SWAP1 SWAP2 ADD ADD MSTORE PUSH2 0x547 DUP2 PUSH2 0x1A41 JUMP JUMPDEST SWAP1 POP PUSH2 0x4FD JUMP JUMPDEST POP SWAP4 SWAP3 POP POP POP JUMP JUMPDEST PUSH2 0x596 PUSH1 0x40 MLOAD DUP1 PUSH1 0xE0 ADD PUSH1 0x40 MSTORE DUP1 PUSH1 0x0 DUP2 MSTORE PUSH1 0x20 ADD PUSH1 0x0 DUP2 MSTORE PUSH1 0x20 ADD PUSH1 0x0 DUP2 MSTORE PUSH1 0x20 ADD PUSH1 0x0 DUP2 MSTORE PUSH1 0x20 ADD PUSH1 0x0 DUP2 MSTORE PUSH1 0x20 ADD PUSH1 0x0 DUP2 MSTORE PUSH1 0x20 ADD PUSH1 0x0 DUP2 MSTORE POP SWAP1 JUMP JUMPDEST POP PUSH1 0x1 PUSH1 0x1 PUSH1 0xA0 SHL SUB AND PUSH1 0x0 SWAP1 DUP2 MSTORE PUSH1 0x6 PUSH1 0x20 DUP2 DUP2 MSTORE PUSH1 0x40 SWAP3 DUP4 SWAP1 KECCAK256 DUP4 MLOAD PUSH1 0xE0 DUP2 ADD DUP6 MSTORE DUP2 SLOAD DUP2 MSTORE PUSH1 0x1 DUP3 ADD SLOAD SWAP3 DUP2 ADD SWAP3 SWAP1 SWAP3 MSTORE PUSH1 0x2 DUP2 ADD SLOAD SWAP4 DUP3 ADD SWAP4 SWAP1 SWAP4 MSTORE PUSH1 0x3 DUP4 ADD SLOAD PUSH1 0x60 DUP3 ADD MSTORE PUSH1 0x4 DUP4 ADD SLOAD PUSH1 0x80 DUP3 ADD MSTORE PUSH1 0x5 DUP4 ADD SLOAD PUSH1 0xA0 DUP3 ADD MSTORE SWAP2 ADD SLOAD PUSH1 0xC0 DUP3 ADD MSTORE SWAP1 JUMP JUMPDEST PUSH1 0x0 PUSH2 0x627 DUP3 PUSH1 0x40 MLOAD DUP1 PUSH1 0x40 ADD PUSH1 0x40 MSTORE DUP1 PUSH1 0x4 DUP2 MSTORE PUSH1 0x20 ADD PUSH4 0x6D6F7665 PUSH1 0xE0 SHL DUP2 MSTORE POP PUSH2 0xBCE JUMP JUMPDEST SWAP1 POP PUSH1 0x0 PUSH2 0x659 DUP4 PUSH1 0x40 MLOAD DUP1 PUSH1 0x40 ADD PUSH1 0x40 MSTORE DUP1 PUSH1 0xC DUP2 MSTORE PUSH1 0x20 ADD PUSH12 0x7370656369616C5F6D6F7665 PUSH1 0xA0 SHL DUP2 MSTORE POP PUSH2 0xBCE JUMP JUMPDEST SWAP1 POP PUSH1 0x0 PUSH2 0x686 DUP5 PUSH1 0x40 MLOAD DUP1 PUSH1 0x40 ADD PUSH1 0x40 MSTORE DUP1 PUSH1 0x7 DUP2 MSTORE PUSH1 0x20 ADD PUSH7 0x67726170706C65 PUSH1 0xC8 SHL DUP2 MSTORE POP PUSH2 0xBCE JUMP JUMPDEST SWAP1 POP PUSH1 0x0 PUSH2 0x6B7 DUP6 PUSH1 0x40 MLOAD DUP1 PUSH1 0x40 ADD PUSH1 0x40 MSTORE DUP1 PUSH1 0xB DUP2 MSTORE PUSH1 0x20 ADD PUSH11 0x726F70655F626F756E6365 PUSH1 0xA8 SHL DUP2 MSTORE POP PUSH2 0xBCE JUMP JUMPDEST SWAP1 POP PUSH1 0x0 PUSH2 0x6E5 DUP7 PUSH1 0x40 MLOAD DUP1 PUSH1 0x40 ADD PUSH1 0x40 MSTORE DUP1 PUSH1 0x8 DUP2 MSTORE PUSH1 0x20 ADD PUSH8 0x1ADB9BD8DADBDD5D PUSH1 0xC2 SHL DUP2 MSTORE POP PUSH2 0xBCE JUMP JUMPDEST SWAP1 POP PUSH1 0x0 PUSH2 0x717 DUP8 PUSH1 0x40 MLOAD DUP1 PUSH1 0x40 ADD PUSH1 0x40 MSTORE DUP1 PUSH1 0xC DUP2 MSTORE PUSH1 0x20 ADD PUSH12 0x6368616D70696F6E7368697 PUSH1 0xA4 SHL DUP2 MSTORE POP PUSH2 0xBCE JUMP JUMPDEST SWAP1 POP DUP6 ISZERO PUSH2 0x744 JUMPI CALLER PUSH1 0x0 SWAP1 DUP2 MSTORE PUSH1 0x6 PUSH1 0x20 MSTORE PUSH1 0x40 DUP2 KECCAK256 DUP1 SLOAD SWAP2 PUSH2 0x73A DUP4 PUSH2 0x1A41 JUMP JUMPDEST SWAP2 SWAP1 POP SSTORE POP PUSH2 0x7FE JUMP JUMPDEST DUP5 ISZERO PUSH2 0x768 JUMPI CALLER PUSH1 0x0 SWAP1 DUP2 MSTORE PUSH1 0x6 PUSH1 0x20 MSTORE PUSH1 0x40 DUP2 KECCAK256 PUSH1 0x1 ADD DUP1 SLOAD SWAP2 PUSH2 0x73A DUP4 PUSH2 0x1A41 JUMP JUMPDEST DUP4 ISZERO PUSH2 0x78C JUMPI CALLER PUSH1 0x0 SWAP1 DUP2 MSTORE PUSH1 0x6 PUSH1 0x20 MSTORE PUSH1 0x40 DUP2 KECCAK256 PUSH1 0x2 ADD DUP1 SLOAD SWAP2 PUSH2 0x73A DUP4 PUSH2 0x1A41 JUMP JUMPDEST DUP3 ISZERO PUSH2 0x7B0 JUMPI CALLER PUSH1 0x0 SWAP1 DUP2 MSTORE PUSH1 0x6 PUSH1 0x20 MSTORE PUSH1 0x40 DUP2 KECCAK256 PUSH1 0x3 ADD DUP1 SLOAD SWAP2 PUSH2 0x73A DUP4 PUSH2 0x1A41 JUMP JUMPDEST DUP2 ISZERO PUSH2 0x7D4 JUMPI CALLER PUSH1 0x0 SWAP1 DUP2 MSTORE PUSH1 0x6 PUSH1 0x20 MSTORE PUSH1 0x40 DUP2 KECCAK256 PUSH1 0x4 ADD DUP1 SLOAD SWAP2 PUSH2 0x73A DUP4 PUSH2 0x1A41 JUMP JUMPDEST DUP1 ISZERO PUSH2 0x7FE JUMPI CALLER PUSH1 0x0 SWAP1 DUP2 MSTORE PUSH1 0x6 PUSH1 0x20 MSTORE PUSH1 0x40 DUP2 KECCAK256 PUSH1 0x5 ADD DUP1 SLOAD SWAP2 PUSH2 0x7F8 DUP4 PUSH2 0x1A41 JUMP JUMPDEST SWAP2 SWAP1 POP SSTORE POP JUMPDEST CALLER PUSH1 0x0 DUP2 DUP2 MSTORE PUSH1 0x6 PUSH1 0x20 DUP2 SWAP1 MSTORE PUSH1 0x40 SWAP2 DUP3 SWAP1 KECCAK256 TIMESTAMP SWAP2 ADD SSTORE MLOAD PUSH32 0xCF4427363692826484588652734FBDFE66066252CE5898A5C9D20416BCADEC53 SWAP1 PUSH2 0x843 SWAP1 DUP11 SWAP1 PUSH2 0x14EB JUMP JUMPDEST PUSH1 0x40 MLOAD DUP1 SWAP2 SUB SWAP1 LOG2 POP POP POP POP POP POP POP JUMP JUMPDEST PUSH2 0x85C PUSH2 0xCAD JUMP JUMPDEST PUSH1 0x5 PUSH2 0x868 DUP3 DUP3 PUSH2 0x1AA5 JUMP JUMPDEST POP POP JUMP JUMPDEST PUSH2 0x874 PUSH2 0xCAD JUMP JUMPDEST PUSH1 0x4 DUP1 SLOAD SWAP1 DUP2 SWAP1 PUSH1 0x0 PUSH2 0x886 DUP4 PUSH2 0x1A41 JUMP JUMPDEST SWAP2 SWAP1 POP SSTORE POP PUSH2 0x8A6 DUP4 DUP3 DUP5 PUSH1 0x40 MLOAD DUP1 PUSH1 0x20 ADD PUSH1 0x40 MSTORE DUP1 PUSH1 0x0 DUP2 MSTORE POP PUSH2 0xCDA JUMP JUMPDEST DUP3 PUSH1 0x1 PUSH1 0x1 PUSH1 0xA0 SHL SUB AND PUSH32 0x40E0FAD75D161C82D49AF9E03EC076EFA4FF442A3954C75339FD02218374E2DC DUP3 PUSH1 0x40 MLOAD PUSH2 0x8E1 SWAP2 DUP2 MSTORE PUSH1 0x20 ADD SWAP1 JUMP JUMPDEST PUSH1 0x40 MLOAD DUP1 SWAP2 SUB SWAP1 LOG2 POP POP POP JUMP JUMPDEST PUSH2 0x8F6 PUSH2 0xCAD JUMP JUMPDEST PUSH2 0x900 PUSH1 0x0 PUSH2 0xD37 JUMP JUMPDEST JUMP JUMPDEST PUSH2 0x868 CALLER DUP4 DUP4 PUSH2 0xD89 JUMP JUMPDEST PUSH1 0x3 SLOAD PUSH1 0x1 PUSH1 0x1 PUSH1 0xA0 SHL SUB AND CALLER EQ DUP1 PUSH2 0x92E JUMPI POP CALLER PUSH1 0x1 PUSH1 0x1 PUSH1 0xA0 SHL SUB DUP3 AND EQ JUMPDEST PUSH2 0x97A JUMPI PUSH1 0x40 MLOAD PUSH3 0x461BCD PUSH1 0xE5 SHL DUP2 MSTORE PUSH1 0x20 PUSH1 0x4 DUP3 ADD MSTORE PUSH1 0x1D PUSH1 0x24 DUP3 ADD MSTORE PUSH32 0x4E6F7420617574686F72697A656420746F206D696E742074726F706879000000 PUSH1 0x44 DUP3 ADD MSTORE PUSH1 0x64 ADD PUSH2 0x463 JUMP JUMPDEST PUSH2 0x996 DUP2 PUSH1 0x1 DUP1 PUSH1 0x40 MLOAD DUP1 PUSH1 0x20 ADD PUSH1 0x40 MSTORE DUP1 PUSH1 0x0 DUP2 MSTORE POP PUSH2 0xCDA JUMP JUMPDEST PUSH1 0x1 PUSH1 0x1 PUSH1 0xA0 SHL SUB DUP2 AND PUSH1 0x0 SWAP1 DUP2 MSTORE PUSH1 0x6 PUSH1 0x20 MSTORE PUSH1 0x40 DUP2 KECCAK256 PUSH1 0x5 ADD DUP1 SLOAD SWAP2 PUSH2 0x9BD DUP4 PUSH2 0x1A41 JUMP JUMPDEST SWAP2 SWAP1 POP SSTORE POP DUP1 PUSH1 0x1 PUSH1 0x1 PUSH1 0xA0 SHL SUB AND PUSH32 0x40E0FAD75D161C82D49AF9E03EC076EFA4FF442A3954C75339FD02218374E2DC PUSH1 0x1 PUSH1 0x40 MLOAD PUSH2 0x9FE SWAP2 DUP2 MSTORE PUSH1 0x20 ADD SWAP1 JUMP JUMPDEST PUSH1 0x40 MLOAD DUP1 SWAP2 SUB SWAP1 LOG2 POP JUMP JUMPDEST PUSH1 0x1 PUSH1 0x1 PUSH1 0xA0 SHL SUB SWAP2 DUP3 AND PUSH1 0x0 SWAP1 DUP2 MSTORE PUSH1 0x1 PUSH1 0x20 SWAP1 DUP2 MSTORE PUSH1 0x40 DUP1 DUP4 KECCAK256 SWAP4 SWAP1 SWAP5 AND DUP3 MSTORE SWAP2 SWAP1 SWAP2 MSTORE KECCAK256 SLOAD PUSH1 0xFF AND SWAP1 JUMP JUMPDEST CALLER PUSH1 0x1 PUSH1 0x1 PUSH1 0xA0 SHL SUB DUP7 AND DUP2 EQ DUP1 ISZERO SWAP1 PUSH2 0xA58 JUMPI POP PUSH2 0xA56 DUP7 DUP3 PUSH2 0xA09 JUMP JUMPDEST ISZERO JUMPDEST ISZERO PUSH2 0xA89 JUMPI PUSH1 0x40 MLOAD PUSH4 0x711BEC91 PUSH1 0xE1 SHL DUP2 MSTORE PUSH1 0x1 PUSH1 0x1 PUSH1 0xA0 SHL SUB DUP1 DUP4 AND PUSH1 0x4 DUP4 ADD MSTORE DUP8 AND PUSH1 0x24 DUP3 ADD MSTORE PUSH1 0x44 ADD PUSH2 0x463 JUMP JUMPDEST PUSH2 0x479 DUP7 DUP7 DUP7 DUP7 DUP7 PUSH2 0xE1F JUMP JUMPDEST PUSH2 0xA9E PUSH2 0xCAD JUMP JUMPDEST PUSH1 0x1 PUSH1 0x1 PUSH1 0xA0 SHL SUB DUP2 AND PUSH2 0xAC8 JUMPI PUSH1 0x40 MLOAD PUSH4 0x1E4FBDF7 PUSH1 0xE0 SHL DUP2 MSTORE PUSH1 0x0 PUSH1 0x4 DUP3 ADD MSTORE PUSH1 0x24 ADD PUSH2 0x463 JUMP JUMPDEST PUSH2 0xAD1 DUP2 PUSH2 0xD37 JUMP JUMPDEST POP JUMP JUMPDEST PUSH1 0x60 PUSH1 0x0 PUSH2 0xAE1 DUP4 PUSH2 0xEAD JUMP JUMPDEST PUSH1 0x1 ADD SWAP1 POP PUSH1 0x0 DUP2 PUSH8 0xFFFFFFFFFFFFFFFF DUP2 GT ISZERO PUSH2 0xB01 JUMPI PUSH2 0xB01 PUSH2 0x14FE JUMP JUMPDEST PUSH1 0x40 MLOAD SWAP1 DUP1 DUP3 MSTORE DUP1 PUSH1 0x1F ADD PUSH1 0x1F NOT AND PUSH1 0x20 ADD DUP3 ADD PUSH1 0x40 MSTORE DUP1 ISZERO PUSH2 0xB2B JUMPI PUSH1 0x20 DUP3 ADD DUP2 DUP1 CALLDATASIZE DUP4 CALLDATACOPY ADD SWAP1 POP JUMPDEST POP SWAP1 POP DUP2 DUP2 ADD PUSH1 0x20 ADD JUMPDEST PUSH1 0x0 NOT ADD PUSH16 0x181899199A1A9B1B9C1CB0B131B232B3 PUSH1 0x81 SHL PUSH1 0xA DUP7 MOD BYTE DUP2 MSTORE8 PUSH1 0xA DUP6 DIV SWAP5 POP DUP5 PUSH2 0xB35 JUMPI POP SWAP4 SWAP3 POP POP POP JUMP JUMPDEST PUSH1 0x1 PUSH1 0x1 PUSH1 0xA0 SHL SUB DUP5 AND PUSH2 0xB91 JUMPI PUSH1 0x40 MLOAD PUSH4 0x2BFA23E7 PUSH1 0xE1 SHL DUP2 MSTORE PUSH1 0x0 PUSH1 0x4 DUP3 ADD MSTORE PUSH1 0x24 ADD PUSH2 0x463 JUMP JUMPDEST PUSH1 0x1 PUSH1 0x1 PUSH1 0xA0 SHL SUB DUP6 AND PUSH2 0xBBA JUMPI PUSH1 0x40 MLOAD PUSH3 0x6A0D45 PUSH1 0xE2 SHL DUP2 MSTORE PUSH1 0x0 PUSH1 0x4 DUP3 ADD MSTORE PUSH1 0x24 ADD PUSH2 0x463 JUMP JUMPDEST PUSH2 0xBC7 DUP6 DUP6 DUP6 DUP6 DUP6 PUSH2 0xF85 JUMP JUMPDEST POP POP POP POP POP JUMP JUMPDEST DUP2 MLOAD DUP2 MLOAD PUSH1 0x0 SWAP2 DUP5 SWAP2 DUP5 SWAP2 LT ISZERO PUSH2 0xBEA JUMPI PUSH1 0x0 SWAP3 POP POP POP PUSH2 0x38B JUMP JUMPDEST PUSH1 0x0 JUMPDEST DUP2 MLOAD DUP4 MLOAD PUSH2 0xBFB SWAP2 SWAP1 PUSH2 0x1B65 JUMP JUMPDEST DUP2 GT PUSH2 0xCA1 JUMPI PUSH1 0x1 PUSH1 0x0 JUMPDEST DUP4 MLOAD DUP2 LT ISZERO PUSH2 0xC7A JUMPI DUP4 DUP2 DUP2 MLOAD DUP2 LT PUSH2 0xC21 JUMPI PUSH2 0xC21 PUSH2 0x1A15 JUMP JUMPDEST ADD PUSH1 0x20 ADD MLOAD PUSH1 0x1 PUSH1 0x1 PUSH1 0xF8 SHL SUB NOT AND DUP6 PUSH2 0xC3B DUP4 DUP7 PUSH2 0x1B78 JUMP JUMPDEST DUP2 MLOAD DUP2 LT PUSH2 0xC4B JUMPI PUSH2 0xC4B PUSH2 0x1A15 JUMP JUMPDEST ADD PUSH1 0x20 ADD MLOAD PUSH1 0x1 PUSH1 0x1 PUSH1 0xF8 SHL SUB NOT AND EQ PUSH2 0xC68 JUMPI PUSH1 0x0 SWAP2 POP PUSH2 0xC7A JUMP JUMPDEST DUP1 PUSH2 0xC72 DUP2 PUSH2 0x1A41 JUMP JUMPDEST SWAP2 POP POP PUSH2 0xC06 JUMP JUMPDEST POP DUP1 ISZERO PUSH2 0xC8E JUMPI PUSH1 0x1 SWAP5 POP POP POP POP POP PUSH2 0x38B JUMP JUMPDEST POP DUP1 PUSH2 0xC99 DUP2 PUSH2 0x1A41 JUMP JUMPDEST SWAP2 POP POP PUSH2 0xBED JUMP JUMPDEST POP PUSH1 0x0 SWAP6 SWAP5 POP POP POP POP POP JUMP JUMPDEST PUSH1 0x3 SLOAD PUSH1 0x1 PUSH1 0x1 PUSH1 0xA0 SHL SUB AND CALLER EQ PUSH2 0x900 JUMPI PUSH1 0x40 MLOAD PUSH4 0x118CDAA7 PUSH1 0xE0 SHL DUP2 MSTORE CALLER PUSH1 0x4 DUP3 ADD MSTORE PUSH1 0x24 ADD PUSH2 0x463 JUMP JUMPDEST PUSH1 0x1 PUSH1 0x1 PUSH1 0xA0 SHL SUB DUP5 AND PUSH2 0xD04 JUMPI PUSH1 0x40 MLOAD PUSH4 0x2BFA23E7 PUSH1 0xE1 SHL DUP2 MSTORE PUSH1 0x0 PUSH1 0x4 DUP3 ADD MSTORE PUSH1 0x24 ADD PUSH2 0x463 JUMP JUMPDEST PUSH1 0x40 DUP1 MLOAD PUSH1 0x1 DUP1 DUP3 MSTORE PUSH1 0x20 DUP3 ADD DUP7 SWAP1 MSTORE DUP2 DUP4 ADD SWAP1 DUP2 MSTORE PUSH1 0x60 DUP3 ADD DUP6 SWAP1 MSTORE PUSH1 0x80 DUP3 ADD SWAP1 SWAP3 MSTORE SWAP1 PUSH2 0x479 PUSH1 0x0 DUP8 DUP5 DUP5 DUP8 PUSH2 0xF85 JUMP JUMPDEST PUSH1 0x3 DUP1 SLOAD PUSH1 0x1 PUSH1 0x1 PUSH1 0xA0 SHL SUB DUP4 DUP2 AND PUSH1 0x1 PUSH1 0x1 PUSH1 0xA0 SHL SUB NOT DUP4 AND DUP2 OR SWAP1 SWAP4 SSTORE PUSH1 0x40 MLOAD SWAP2 AND SWAP2 SWAP1 DUP3 SWAP1 PUSH32 0x8BE0079C531659141344CD1FD0A4F28419497F9722A3DAAFE3B4186F6B6457E0 SWAP1 PUSH1 0x0 SWAP1 LOG3 POP POP JUMP JUMPDEST PUSH1 0x1 PUSH1 0x1 PUSH1 0xA0 SHL SUB DUP3 AND PUSH2 0xDB2 JUMPI PUSH1 0x40 MLOAD PUSH3 0xCED3E1 PUSH1 0xE8 SHL DUP2 MSTORE PUSH1 0x0 PUSH1 0x4 DUP3 ADD MSTORE PUSH1 0x24 ADD PUSH2 0x463 JUMP JUMPDEST PUSH1 0x1 PUSH1 0x1 PUSH1 0xA0 SHL SUB DUP4 DUP2 AND PUSH1 0x0 DUP2 DUP2 MSTORE PUSH1 0x1 PUSH1 0x20 SWAP1 DUP2 MSTORE PUSH1 0x40 DUP1 DUP4 KECCAK256 SWAP5 DUP8 AND DUP1 DUP5 MSTORE SWAP5 DUP3 MSTORE SWAP2 DUP3 SWAP1 KECCAK256 DUP1 SLOAD PUSH1 0xFF NOT AND DUP7 ISZERO ISZERO SWAP1 DUP2 OR SWAP1 SWAP2 SSTORE SWAP2 MLOAD SWAP2 DUP3 MSTORE PUSH32 0x17307EAB39AB6107E8899845AD3D59BD9653F200F220920489CA2B5937696C31 SWAP2 ADD PUSH1 0x40 MLOAD DUP1 SWAP2 SUB SWAP1 LOG3 POP POP POP JUMP JUMPDEST PUSH1 0x1 PUSH1 0x1 PUSH1 0xA0 SHL SUB DUP5 AND PUSH2 0xE49 JUMPI PUSH1 0x40 MLOAD PUSH4 0x2BFA23E7 PUSH1 0xE1 SHL DUP2 MSTORE PUSH1 0x0 PUSH1 0x4 DUP3 ADD MSTORE PUSH1 0x24 ADD PUSH2 0x463 JUMP JUMPDEST PUSH1 0x1 PUSH1 0x1 PUSH1 0xA0 SHL SUB DUP6 AND PUSH2 0xE72 JUMPI PUSH1 0x40 MLOAD PUSH3 0x6A0D45 PUSH1 0xE2 SHL DUP2 MSTORE PUSH1 0x0 PUSH1 0x4 DUP3 ADD MSTORE PUSH1 0x24 ADD PUSH2 0x463 JUMP JUMPDEST PUSH1 0x40 DUP1 MLOAD PUSH1 0x1 DUP1 DUP3 MSTORE PUSH1 0x20 DUP3 ADD DUP7 SWAP1 MSTORE DUP2 DUP4 ADD SWAP1 DUP2 MSTORE PUSH1 0x60 DUP3 ADD DUP6 SWAP1 MSTORE PUSH1 0x80 DUP3 ADD SWAP1 SWAP3 MSTORE SWAP1 PUSH2 0xEA4 DUP8 DUP8 DUP5 DUP5 DUP8 PUSH2 0xF85 JUMP JUMPDEST POP POP POP POP POP POP POP JUMP JUMPDEST PUSH1 0x0 DUP1 PUSH19 0x184F03E93FF9F4DAA797ED6E38ED64BF6A1F01 PUSH1 0x40 SHL DUP4 LT PUSH2 0xEEC JUMPI PUSH19 0x184F03E93FF9F4DAA797ED6E38ED64BF6A1F01 PUSH1 0x40 SHL DUP4 DIV SWAP3 POP PUSH1 0x40 ADD JUMPDEST PUSH14 0x4EE2D6D415B85ACEF8100000000 DUP4 LT PUSH2 0xF18 JUMPI PUSH14 0x4EE2D6D415B85ACEF8100000000 DUP4 DIV SWAP3 POP PUSH1 0x20 ADD JUMPDEST PUSH7 0x2386F26FC10000 DUP4 LT PUSH2 0xF36 JUMPI PUSH7 0x2386F26FC10000 DUP4 DIV SWAP3 POP PUSH1 0x10 ADD JUMPDEST PUSH4 0x5F5E100 DUP4 LT PUSH2 0xF4E JUMPI PUSH4 0x5F5E100 DUP4 DIV SWAP3 POP PUSH1 0x8 ADD JUMPDEST PUSH2 0x2710 DUP4 LT PUSH2 0xF62 JUMPI PUSH2 0x2710 DUP4 DIV SWAP3 POP PUSH1 0x4 ADD JUMPDEST PUSH1 0x64 DUP4 LT PUSH2 0xF74 JUMPI PUSH1 0x64 DUP4 DIV SWAP3 POP PUSH1 0x2 ADD JUMPDEST PUSH1 0xA DUP4 LT PUSH2 0x38B JUMPI PUSH1 0x1 ADD SWAP3 SWAP2 POP POP JUMP JUMPDEST PUSH2 0xF91 DUP6 DUP6 DUP6 DUP6 PUSH2 0xFD8 JUMP JUMPDEST PUSH1 0x1 PUSH1 0x1 PUSH1 0xA0 SHL SUB DUP5 AND ISZERO PUSH2 0xBC7 JUMPI DUP3 MLOAD CALLER SWAP1 PUSH1 0x1 SUB PUSH2 0xFCA JUMPI PUSH1 0x20 DUP5 DUP2 ADD MLOAD SWAP1 DUP5 ADD MLOAD PUSH2 0xFC3 DUP4 DUP10 DUP10 DUP6 DUP6 DUP10 PUSH2 0x11F5 JUMP JUMPDEST POP POP PUSH2 0x479 JUMP JUMPDEST PUSH2 0x479 DUP2 DUP8 DUP8 DUP8 DUP8 DUP8 PUSH2 0x1319 JUMP JUMPDEST DUP1 MLOAD DUP3 MLOAD EQ PUSH2 0x1007 JUMPI DUP2 MLOAD DUP2 MLOAD PUSH1 0x40 MLOAD PUSH4 0x5B059991 PUSH1 0xE0 SHL DUP2 MSTORE PUSH1 0x4 DUP2 ADD SWAP3 SWAP1 SWAP3 MSTORE PUSH1 0x24 DUP3 ADD MSTORE PUSH1 0x44 ADD PUSH2 0x463 JUMP JUMPDEST CALLER PUSH1 0x0 JUMPDEST DUP4 MLOAD DUP2 LT ISZERO PUSH2 0x1116 JUMPI PUSH1 0x20 DUP2 DUP2 MUL DUP6 DUP2 ADD DUP3 ADD MLOAD SWAP1 DUP6 ADD SWAP1 SWAP2 ADD MLOAD PUSH1 0x1 PUSH1 0x1 PUSH1 0xA0 SHL SUB DUP9 AND ISZERO PUSH2 0x10BE JUMPI PUSH1 0x0 DUP3 DUP2 MSTORE PUSH1 0x20 DUP2 DUP2 MSTORE PUSH1 0x40 DUP1 DUP4 KECCAK256 PUSH1 0x1 PUSH1 0x1 PUSH1 0xA0 SHL SUB DUP13 AND DUP5 MSTORE SWAP1 SWAP2 MSTORE SWAP1 KECCAK256 SLOAD DUP2 DUP2 LT ISZERO PUSH2 0x1097 JUMPI PUSH1 0x40 MLOAD PUSH4 0x3DEE4C5 PUSH1 0xE0 SHL DUP2 MSTORE PUSH1 0x1 PUSH1 0x1 PUSH1 0xA0 SHL SUB DUP11 AND PUSH1 0x4 DUP3 ADD MSTORE PUSH1 0x24 DUP2 ADD DUP3 SWAP1 MSTORE PUSH1 0x44 DUP2 ADD DUP4 SWAP1 MSTORE PUSH1 0x64 DUP2 ADD DUP5 SWAP1 MSTORE PUSH1 0x84 ADD PUSH2 0x463 JUMP JUMPDEST PUSH1 0x0 DUP4 DUP2 MSTORE PUSH1 0x20 DUP2 DUP2 MSTORE PUSH1 0x40 DUP1 DUP4 KECCAK256 PUSH1 0x1 PUSH1 0x1 PUSH1 0xA0 SHL SUB DUP14 AND DUP5 MSTORE SWAP1 SWAP2 MSTORE SWAP1 KECCAK256 SWAP1 DUP3 SWAP1 SUB SWAP1 SSTORE JUMPDEST PUSH1 0x1 PUSH1 0x1 PUSH1 0xA0 SHL SUB DUP8 AND ISZERO PUSH2 0x1103 JUMPI PUSH1 0x0 DUP3 DUP2 MSTORE PUSH1 0x20 DUP2 DUP2 MSTORE PUSH1 0x40 DUP1 DUP4 KECCAK256 PUSH1 0x1 PUSH1 0x1 PUSH1 0xA0 SHL SUB DUP12 AND DUP5 MSTORE SWAP1 SWAP2 MSTORE DUP2 KECCAK256 DUP1 SLOAD DUP4 SWAP3 SWAP1 PUSH2 0x10FD SWAP1 DUP5 SWAP1 PUSH2 0x1B78 JUMP JUMPDEST SWAP1 SWAP2 SSTORE POP POP JUMPDEST POP POP DUP1 PUSH2 0x110F SWAP1 PUSH2 0x1A41 JUMP JUMPDEST SWAP1 POP PUSH2 0x100B JUMP JUMPDEST POP DUP3 MLOAD PUSH1 0x1 SUB PUSH2 0x1197 JUMPI PUSH1 0x20 DUP4 ADD MLOAD PUSH1 0x0 SWAP1 PUSH1 0x20 DUP5 ADD MLOAD SWAP1 SWAP2 POP DUP6 PUSH1 0x1 PUSH1 0x1 PUSH1 0xA0 SHL SUB AND DUP8 PUSH1 0x1 PUSH1 0x1 PUSH1 0xA0 SHL SUB AND DUP5 PUSH1 0x1 PUSH1 0x1 PUSH1 0xA0 SHL SUB AND PUSH32 0xC3D58168C5AE7397731D063D5BBF3D657854427343F4C083240F7AACAA2D0F62 DUP6 DUP6 PUSH1 0x40 MLOAD PUSH2 0x1188 SWAP3 SWAP2 SWAP1 SWAP2 DUP3 MSTORE PUSH1 0x20 DUP3 ADD MSTORE PUSH1 0x40 ADD SWAP1 JUMP JUMPDEST PUSH1 0x40 MLOAD DUP1 SWAP2 SUB SWAP1 LOG4 POP POP PUSH2 0xBC7 JUMP JUMPDEST DUP4 PUSH1 0x1 PUSH1 0x1 PUSH1 0xA0 SHL SUB AND DUP6 PUSH1 0x1 PUSH1 0x1 PUSH1 0xA0 SHL SUB AND DUP3 PUSH1 0x1 PUSH1 0x1 PUSH1 0xA0 SHL SUB AND PUSH32 0x4A39DC06D4C0DBC64B70AF90FD698A233A518AA5D07E595D983B8C0526C8F7FB DUP7 DUP7 PUSH1 0x40 MLOAD PUSH2 0x11E6 SWAP3 SWAP2 SWAP1 PUSH2 0x1B8B JUMP JUMPDEST PUSH1 0x40 MLOAD DUP1 SWAP2 SUB SWAP1 LOG4 POP POP POP POP POP JUMP JUMPDEST PUSH1 0x1 PUSH1 0x1 PUSH1 0xA0 SHL SUB DUP5 AND EXTCODESIZE ISZERO PUSH2 0x479 JUMPI PUSH1 0x40 MLOAD PUSH4 0xF23A6E61 PUSH1 0xE0 SHL DUP2 MSTORE PUSH1 0x1 PUSH1 0x1 PUSH1 0xA0 SHL SUB DUP6 AND SWAP1 PUSH4 0xF23A6E61 SWAP1 PUSH2 0x1239 SWAP1 DUP10 SWAP1 DUP10 SWAP1 DUP9 SWAP1 DUP9 SWAP1 DUP9 SWAP1 PUSH1 0x4 ADD PUSH2 0x1BB9 JUMP JUMPDEST PUSH1 0x20 PUSH1 0x40 MLOAD DUP1 DUP4 SUB DUP2 PUSH1 0x0 DUP8 GAS CALL SWAP3 POP POP POP DUP1 ISZERO PUSH2 0x1274 JUMPI POP PUSH1 0x40 DUP1 MLOAD PUSH1 0x1F RETURNDATASIZE SWAP1 DUP2 ADD PUSH1 0x1F NOT AND DUP3 ADD SWAP1 SWAP3 MSTORE PUSH2 0x1271 SWAP2 DUP2 ADD SWAP1 PUSH2 0x1BFE JUMP JUMPDEST PUSH1 0x1 JUMPDEST PUSH2 0x12DD JUMPI RETURNDATASIZE DUP1 DUP1 ISZERO PUSH2 0x12A2 JUMPI PUSH1 0x40 MLOAD SWAP2 POP PUSH1 0x1F NOT PUSH1 0x3F RETURNDATASIZE ADD AND DUP3 ADD PUSH1 0x40 MSTORE RETURNDATASIZE DUP3 MSTORE RETURNDATASIZE PUSH1 0x0 PUSH1 0x20 DUP5 ADD RETURNDATACOPY PUSH2 0x12A7 JUMP JUMPDEST PUSH1 0x60 SWAP2 POP JUMPDEST POP DUP1 MLOAD PUSH1 0x0 SUB PUSH2 0x12D5 JUMPI PUSH1 0x40 MLOAD PUSH4 0x2BFA23E7 PUSH1 0xE1 SHL DUP2 MSTORE PUSH1 0x1 PUSH1 0x1 PUSH1 0xA0 SHL SUB DUP7 AND PUSH1 0x4 DUP3 ADD MSTORE PUSH1 0x24 ADD PUSH2 0x463 JUMP JUMPDEST DUP1 MLOAD DUP2 PUSH1 0x20 ADD REVERT JUMPDEST PUSH1 0x1 PUSH1 0x1 PUSH1 0xE0 SHL SUB NOT DUP2 AND PUSH4 0xF23A6E61 PUSH1 0xE0 SHL EQ PUSH2 0xEA4 JUMPI PUSH1 0x40 MLOAD PUSH4 0x2BFA23E7 PUSH1 0xE1 SHL DUP2 MSTORE PUSH1 0x1 PUSH1 0x1 PUSH1 0xA0 SHL SUB DUP7 AND PUSH1 0x4 DUP3 ADD MSTORE PUSH1 0x24 ADD PUSH2 0x463 JUMP JUMPDEST PUSH1 0x1 PUSH1 0x1 PUSH1 0xA0 SHL SUB DUP5 AND EXTCODESIZE ISZERO PUSH2 0x479 JUMPI PUSH1 0x40 MLOAD PUSH4 0xBC197C81 PUSH1 0xE0 SHL DUP2 MSTORE PUSH1 0x1 PUSH1 0x1 PUSH1 0xA0 SHL SUB DUP6 AND SWAP1 PUSH4 0xBC197C81 SWAP1 PUSH2 0x135D SWAP1 DUP10 SWAP1 DUP10 SWAP1 DUP9 SWAP1 DUP9 SWAP1 DUP9 SWAP1 PUSH1 0x4 ADD PUSH2 0x1C1B JUMP JUMPDEST PUSH1 0x20 PUSH1 0x40 MLOAD DUP1 DUP4 SUB DUP2 PUSH1 0x0 DUP8 GAS CALL SWAP3 POP POP POP DUP1 ISZERO PUSH2 0x1398 JUMPI POP PUSH1 0x40 DUP1 MLOAD PUSH1 0x1F RETURNDATASIZE SWAP1 DUP2 ADD PUSH1 0x1F NOT AND DUP3 ADD SWAP1 SWAP3 MSTORE PUSH2 0x1395 SWAP2 DUP2 ADD SWAP1 PUSH2 0x1BFE JUMP JUMPDEST PUSH1 0x1 JUMPDEST PUSH2 0x13C6 JUMPI RETURNDATASIZE DUP1 DUP1 ISZERO PUSH2 0x12A2 JUMPI PUSH1 0x40 MLOAD SWAP2 POP PUSH1 0x1F NOT PUSH1 0x3F RETURNDATASIZE ADD AND DUP3 ADD PUSH1 0x40 MSTORE RETURNDATASIZE DUP3 MSTORE RETURNDATASIZE PUSH1 0x0 PUSH1 0x20 DUP5 ADD RETURNDATACOPY PUSH2 0x12A7 JUMP JUMPDEST PUSH1 0x1 PUSH1 0x1 PUSH1 0xE0 SHL SUB NOT DUP2 AND PUSH4 0xBC197C81 PUSH1 0xE0 SHL EQ PUSH2 0xEA4 JUMPI PUSH1 0x40 MLOAD PUSH4 0x2BFA23E7 PUSH1 0xE1 SHL DUP2 MSTORE PUSH1 0x1 PUSH1 0x1 PUSH1 0xA0 SHL SUB DUP7 AND PUSH1 0x4 DUP3 ADD MSTORE PUSH1 0x24 ADD PUSH2 0x463 JUMP JUMPDEST DUP1 CALLDATALOAD PUSH1 0x1 PUSH1 0x1 PUSH1 0xA0 SHL SUB DUP2 AND DUP2 EQ PUSH2 0x1419 JUMPI PUSH1 0x0 DUP1 REVERT JUMPDEST SWAP2 SWAP1 POP JUMP JUMPDEST PUSH1 0x0 DUP1 PUSH1 0x40 DUP4 DUP6 SUB SLT ISZERO PUSH2 0x1431 JUMPI PUSH1 0x0 DUP1 REVERT JUMPDEST PUSH2 0x143A DUP4 PUSH2 0x1402 JUMP JUMPDEST SWAP5 PUSH1 0x20 SWAP4 SWAP1 SWAP4 ADD CALLDATALOAD SWAP4 POP POP POP JUMP JUMPDEST PUSH1 0x1 PUSH1 0x1 PUSH1 0xE0 SHL SUB NOT DUP2 AND DUP2 EQ PUSH2 0xAD1 JUMPI PUSH1 0x0 DUP1 REVERT JUMPDEST PUSH1 0x0 PUSH1 0x20 DUP3 DUP5 SUB SLT ISZERO PUSH2 0x1470 JUMPI PUSH1 0x0 DUP1 REVERT JUMPDEST DUP2 CALLDATALOAD PUSH2 0x147B DUP2 PUSH2 0x1448 JUMP JUMPDEST SWAP4 SWAP3 POP POP POP JUMP JUMPDEST PUSH1 0x0 PUSH1 0x20 DUP3 DUP5 SUB SLT ISZERO PUSH2 0x1494 JUMPI PUSH1 0x0 DUP1 REVERT JUMPDEST POP CALLDATALOAD SWAP2 SWAP1 POP JUMP JUMPDEST PUSH1 0x0 JUMPDEST DUP4 DUP2 LT ISZERO PUSH2 0x14B6 JUMPI DUP2 DUP2 ADD MLOAD DUP4 DUP3 ADD MSTORE PUSH1 0x20 ADD PUSH2 0x149E JUMP JUMPDEST POP POP PUSH1 0x0 SWAP2 ADD MSTORE JUMP JUMPDEST PUSH1 0x0 DUP2 MLOAD DUP1 DUP5 MSTORE PUSH2 0x14D7 DUP2 PUSH1 0x20 DUP7 ADD PUSH1 0x20 DUP7 ADD PUSH2 0x149B JUMP JUMPDEST PUSH1 0x1F ADD PUSH1 0x1F NOT AND SWAP3 SWAP1 SWAP3 ADD PUSH1 0x20 ADD SWAP3 SWAP2 POP POP JUMP JUMPDEST PUSH1 0x20 DUP2 MSTORE PUSH1 0x0 PUSH2 0x147B PUSH1 0x20 DUP4 ADD DUP5 PUSH2 0x14BF JUMP JUMPDEST PUSH4 0x4E487B71 PUSH1 0xE0 SHL PUSH1 0x0 MSTORE PUSH1 0x41 PUSH1 0x4 MSTORE PUSH1 0x24 PUSH1 0x0 REVERT JUMPDEST PUSH1 0x40 MLOAD PUSH1 0x1F DUP3 ADD PUSH1 0x1F NOT AND DUP2 ADD PUSH8 0xFFFFFFFFFFFFFFFF DUP2 GT DUP3 DUP3 LT OR ISZERO PUSH2 0x153D JUMPI PUSH2 0x153D PUSH2 0x14FE JUMP JUMPDEST PUSH1 0x40 MSTORE SWAP2 SWAP1 POP JUMP JUMPDEST PUSH1 0x0 PUSH8 0xFFFFFFFFFFFFFFFF DUP3 GT ISZERO PUSH2 0x155F JUMPI PUSH2 0x155F PUSH2 0x14FE JUMP JUMPDEST POP PUSH1 0x5 SHL PUSH1 0x20 ADD SWAP1 JUMP JUMPDEST PUSH1 0x0 DUP3 PUSH1 0x1F DUP4 ADD SLT PUSH2 0x157A JUMPI PUSH1 0x0 DUP1 REVERT JUMPDEST DUP2 CALLDATALOAD PUSH1 0x20 PUSH2 0x158F PUSH2 0x158A DUP4 PUSH2 0x1545 JUMP JUMPDEST PUSH2 0x1514 JUMP JUMPDEST DUP3 DUP2 MSTORE PUSH1 0x5 SWAP3 SWAP1 SWAP3 SHL DUP5 ADD DUP2 ADD SWAP2 DUP2 DUP2 ADD SWAP1 DUP7 DUP5 GT ISZERO PUSH2 0x15AE JUMPI PUSH1 0x0 DUP1 REVERT JUMPDEST DUP3 DUP7 ADD JUMPDEST DUP5 DUP2 LT ISZERO PUSH2 0x15C9 JUMPI DUP1 CALLDATALOAD DUP4 MSTORE SWAP2 DUP4 ADD SWAP2 DUP4 ADD PUSH2 0x15B2 JUMP JUMPDEST POP SWAP7 SWAP6 POP POP POP POP POP POP JUMP JUMPDEST PUSH1 0x0 PUSH8 0xFFFFFFFFFFFFFFFF DUP4 GT ISZERO PUSH2 0x15EE JUMPI PUSH2 0x15EE PUSH2 0x14FE JUMP JUMPDEST PUSH2 0x1601 PUSH1 0x1F DUP5 ADD PUSH1 0x1F NOT AND PUSH1 0x20 ADD PUSH2 0x1514 JUMP JUMPDEST SWAP1 POP DUP3 DUP2 MSTORE DUP4 DUP4 DUP4 ADD GT ISZERO PUSH2 0x1615 JUMPI PUSH1 0x0 DUP1 REVERT JUMPDEST DUP3 DUP3 PUSH1 0x20 DUP4 ADD CALLDATACOPY PUSH1 0x0 PUSH1 0x20 DUP5 DUP4 ADD ADD MSTORE SWAP4 SWAP3 POP POP POP JUMP JUMPDEST PUSH1 0x0 DUP3 PUSH1 0x1F DUP4 ADD SLT PUSH2 0x163D JUMPI PUSH1 0x0 DUP1 REVERT JUMPDEST PUSH2 0x147B DUP4 DUP4 CALLDATALOAD PUSH1 0x20 DUP6 ADD PUSH2 0x15D4 JUMP JUMPDEST PUSH1 0x0 DUP1 PUSH1 0x0 DUP1 PUSH1 0x0 PUSH1 0xA0 DUP7 DUP9 SUB SLT ISZERO PUSH2 0x1664 JUMPI PUSH1 0x0 DUP1 REVERT JUMPDEST PUSH2 0x166D DUP7 PUSH2 0x1402 JUMP JUMPDEST SWAP5 POP PUSH2 0x167B PUSH1 0x20 DUP8 ADD PUSH2 0x1402 JUMP JUMPDEST SWAP4 POP PUSH1 0x40 DUP7 ADD CALLDATALOAD PUSH8 0xFFFFFFFFFFFFFFFF DUP1 DUP3 GT ISZERO PUSH2 0x1698 JUMPI PUSH1 0x0 DUP1 REVERT JUMPDEST PUSH2 0x16A4 DUP10 DUP4 DUP11 ADD PUSH2 0x1569 JUMP JUMPDEST SWAP5 POP PUSH1 0x60 DUP9 ADD CALLDATALOAD SWAP2 POP DUP1 DUP3 GT ISZERO PUSH2 0x16BA JUMPI PUSH1 0x0 DUP1 REVERT JUMPDEST PUSH2 0x16C6 DUP10 DUP4 DUP11 ADD PUSH2 0x1569 JUMP JUMPDEST SWAP4 POP PUSH1 0x80 DUP9 ADD CALLDATALOAD SWAP2 POP DUP1 DUP3 GT ISZERO PUSH2 0x16DC JUMPI PUSH1 0x0 DUP1 REVERT JUMPDEST POP PUSH2 0x16E9 DUP9 DUP3 DUP10 ADD PUSH2 0x162C JUMP JUMPDEST SWAP2 POP POP SWAP3 SWAP6 POP SWAP3 SWAP6 SWAP1 SWAP4 POP JUMP JUMPDEST PUSH1 0x0 DUP1 PUSH1 0x40 DUP4 DUP6 SUB SLT ISZERO PUSH2 0x1709 JUMPI PUSH1 0x0 DUP1 REVERT JUMPDEST DUP3 CALLDATALOAD PUSH8 0xFFFFFFFFFFFFFFFF DUP1 DUP3 GT ISZERO PUSH2 0x1721 JUMPI PUSH1 0x0 DUP1 REVERT JUMPDEST DUP2 DUP6 ADD SWAP2 POP DUP6 PUSH1 0x1F DUP4 ADD SLT PUSH2 0x1735 JUMPI PUSH1 0x0 DUP1 REVERT JUMPDEST DUP2 CALLDATALOAD PUSH1 0x20 PUSH2 0x1745 PUSH2 0x158A DUP4 PUSH2 0x1545 JUMP JUMPDEST DUP3 DUP2 MSTORE PUSH1 0x5 SWAP3 SWAP1 SWAP3 SHL DUP5 ADD DUP2 ADD SWAP2 DUP2 DUP2 ADD SWAP1 DUP10 DUP5 GT ISZERO PUSH2 0x1764 JUMPI PUSH1 0x0 DUP1 REVERT JUMPDEST SWAP5 DUP3 ADD SWAP5 JUMPDEST DUP4 DUP7 LT ISZERO PUSH2 0x1789 JUMPI PUSH2 0x177A DUP7 PUSH2 0x1402 JUMP JUMPDEST DUP3 MSTORE SWAP5 DUP3 ADD SWAP5 SWAP1 DUP3 ADD SWAP1 PUSH2 0x1769 JUMP JUMPDEST SWAP7 POP POP DUP7 ADD CALLDATALOAD SWAP3 POP POP DUP1 DUP3 GT ISZERO PUSH2 0x179F JUMPI PUSH1 0x0 DUP1 REVERT JUMPDEST POP PUSH2 0x17AC DUP6 DUP3 DUP7 ADD PUSH2 0x1569 JUMP JUMPDEST SWAP2 POP POP SWAP3 POP SWAP3 SWAP1 POP JUMP JUMPDEST PUSH1 0x0 DUP2 MLOAD DUP1 DUP5 MSTORE PUSH1 0x20 DUP1 DUP6 ADD SWAP5 POP DUP1 DUP5 ADD PUSH1 0x0 JUMPDEST DUP4 DUP2 LT ISZERO PUSH2 0x17E6 JUMPI DUP2 MLOAD DUP8 MSTORE SWAP6 DUP3 ADD SWAP6 SWAP1 DUP3 ADD SWAP1 PUSH1 0x1 ADD PUSH2 0x17CA JUMP JUMPDEST POP SWAP5 SWAP6 SWAP5 POP POP POP POP POP JUMP JUMPDEST PUSH1 0x20 DUP2 MSTORE PUSH1 0x0 PUSH2 0x147B PUSH1 0x20 DUP4 ADD DUP5 PUSH2 0x17B6 JUMP JUMPDEST PUSH1 0x0 PUSH1 0x20 DUP3 DUP5 SUB SLT ISZERO PUSH2 0x1816 JUMPI PUSH1 0x0 DUP1 REVERT JUMPDEST PUSH2 0x147B DUP3 PUSH2 0x1402 JUMP JUMPDEST PUSH1 0x0 PUSH1 0x20 DUP3 DUP5 SUB SLT ISZERO PUSH2 0x1831 JUMPI PUSH1 0x0 DUP1 REVERT JUMPDEST DUP2 CALLDATALOAD PUSH8 0xFFFFFFFFFFFFFFFF DUP2 GT ISZERO PUSH2 0x1848 JUMPI PUSH1 0x0 DUP1 REVERT JUMPDEST DUP3 ADD PUSH1 0x1F DUP2 ADD DUP5 SGT PUSH2 0x1859 JUMPI PUSH1 0x0 DUP1 REVERT JUMPDEST PUSH2 0x1868 DUP5 DUP3 CALLDATALOAD PUSH1 0x20 DUP5 ADD PUSH2 0x15D4 JUMP JUMPDEST SWAP5 SWAP4 POP POP POP POP JUMP JUMPDEST PUSH1 0x0 DUP1 PUSH1 0x40 DUP4 DUP6 SUB SLT ISZERO PUSH2 0x1883 JUMPI PUSH1 0x0 DUP1 REVERT JUMPDEST PUSH2 0x188C DUP4 PUSH2 0x1402 JUMP JUMPDEST SWAP2 POP PUSH1 0x20 DUP4 ADD CALLDATALOAD DUP1 ISZERO ISZERO DUP2 EQ PUSH2 0x18A1 JUMPI PUSH1 0x0 DUP1 REVERT JUMPDEST DUP1 SWAP2 POP POP SWAP3 POP SWAP3 SWAP1 POP JUMP JUMPDEST PUSH1 0x0 DUP1 PUSH1 0x40 DUP4 DUP6 SUB SLT ISZERO PUSH2 0x18BF JUMPI PUSH1 0x0 DUP1 REVERT JUMPDEST PUSH2 0x18C8 DUP4 PUSH2 0x1402 JUMP JUMPDEST SWAP2 POP PUSH2 0x18D6 PUSH1 0x20 DUP5 ADD PUSH2 0x1402 JUMP JUMPDEST SWAP1 POP SWAP3 POP SWAP3 SWAP1 POP JUMP JUMPDEST PUSH1 0x0 DUP1 PUSH1 0x0 DUP1 PUSH1 0x0 PUSH1 0xA0 DUP7 DUP9 SUB SLT ISZERO PUSH2 0x18F7 JUMPI PUSH1 0x0 DUP1 REVERT JUMPDEST PUSH2 0x1900 DUP7 PUSH2 0x1402 JUMP JUMPDEST SWAP5 POP PUSH2 0x190E PUSH1 0x20 DUP8 ADD PUSH2 0x1402 JUMP JUMPDEST SWAP4 POP PUSH1 0x40 DUP7 ADD CALLDATALOAD SWAP3 POP PUSH1 0x60 DUP7 ADD CALLDATALOAD SWAP2 POP PUSH1 0x80 DUP7 ADD CALLDATALOAD PUSH8 0xFFFFFFFFFFFFFFFF DUP2 GT ISZERO PUSH2 0x1938 JUMPI PUSH1 0x0 DUP1 REVERT JUMPDEST PUSH2 0x16E9 DUP9 DUP3 DUP10 ADD PUSH2 0x162C JUMP JUMPDEST PUSH1 0x1 DUP2 DUP2 SHR SWAP1 DUP3 AND DUP1 PUSH2 0x1958 JUMPI PUSH1 0x7F DUP3 AND SWAP2 POP JUMPDEST PUSH1 0x20 DUP3 LT DUP2 SUB PUSH2 0x1978 JUMPI PUSH4 0x4E487B71 PUSH1 0xE0 SHL PUSH1 0x0 MSTORE PUSH1 0x22 PUSH1 0x4 MSTORE PUSH1 0x24 PUSH1 0x0 REVERT JUMPDEST POP SWAP2 SWAP1 POP JUMP JUMPDEST PUSH1 0x0 DUP1 DUP5 SLOAD PUSH2 0x198C DUP2 PUSH2 0x1944 JUMP JUMPDEST PUSH1 0x1 DUP3 DUP2 AND DUP1 ISZERO PUSH2 0x19A4 JUMPI PUSH1 0x1 DUP2 EQ PUSH2 0x19B9 JUMPI PUSH2 0x19E8 JUMP JUMPDEST PUSH1 0xFF NOT DUP5 AND DUP8 MSTORE DUP3 ISZERO ISZERO DUP4 MUL DUP8 ADD SWAP5 POP PUSH2 0x19E8 JUMP JUMPDEST DUP9 PUSH1 0x0 MSTORE PUSH1 0x20 DUP1 PUSH1 0x0 KECCAK256 PUSH1 0x0 JUMPDEST DUP6 DUP2 LT ISZERO PUSH2 0x19DF JUMPI DUP2 SLOAD DUP11 DUP3 ADD MSTORE SWAP1 DUP5 ADD SWAP1 DUP3 ADD PUSH2 0x19C6 JUMP JUMPDEST POP POP POP DUP3 DUP8 ADD SWAP5 POP JUMPDEST POP POP POP POP DUP4 MLOAD PUSH2 0x19FC DUP2 DUP4 PUSH1 0x20 DUP9 ADD PUSH2 0x149B JUMP JUMPDEST PUSH5 0x173539B7B7 PUSH1 0xD9 SHL SWAP2 ADD SWAP1 DUP2 MSTORE PUSH1 0x5 ADD SWAP5 SWAP4 POP POP POP POP JUMP JUMPDEST PUSH4 0x4E487B71 PUSH1 0xE0 SHL PUSH1 0x0 MSTORE PUSH1 0x32 PUSH1 0x4 MSTORE PUSH1 0x24 PUSH1 0x0 REVERT JUMPDEST PUSH4 0x4E487B71 PUSH1 0xE0 SHL PUSH1 0x0 MSTORE PUSH1 0x11 PUSH1 0x4 MSTORE PUSH1 0x24 PUSH1 0x0 REVERT JUMPDEST PUSH1 0x0 PUSH1 0x1 DUP3 ADD PUSH2 0x1A53 JUMPI PUSH2 0x1A53 PUSH2 0x1A2B JUMP JUMPDEST POP PUSH1 0x1 ADD SWAP1 JUMP JUMPDEST PUSH1 0x1F DUP3 GT ISZERO PUSH2 0x1AA0 JUMPI PUSH1 0x0 DUP2 DUP2 MSTORE PUSH1 0x20 DUP2 KECCAK256 PUSH1 0x1F DUP6 ADD PUSH1 0x5 SHR DUP2 ADD PUSH1 0x20 DUP7 LT ISZERO PUSH2 0x1A81 JUMPI POP DUP1 JUMPDEST PUSH1 0x1F DUP6 ADD PUSH1 0x5 SHR DUP3 ADD SWAP2 POP JUMPDEST DUP2 DUP2 LT ISZERO PUSH2 0x479 JUMPI DUP3 DUP2 SSTORE PUSH1 0x1 ADD PUSH2 0x1A8D JUMP JUMPDEST POP POP POP JUMP JUMPDEST DUP2 MLOAD PUSH8 0xFFFFFFFFFFFFFFFF DUP2 GT ISZERO PUSH2 0x1ABF JUMPI PUSH2 0x1ABF PUSH2 0x14FE JUMP JUMPDEST PUSH2 0x1AD3 DUP2 PUSH2 0x1ACD DUP5 SLOAD PUSH2 0x1944 JUMP JUMPDEST DUP5 PUSH2 0x1A5A JUMP JUMPDEST PUSH1 0x20 DUP1 PUSH1 0x1F DUP4 GT PUSH1 0x1 DUP2 EQ PUSH2 0x1B08 JUMPI PUSH1 0x0 DUP5 ISZERO PUSH2 0x1AF0 JUMPI POP DUP6 DUP4 ADD MLOAD JUMPDEST PUSH1 0x0 NOT PUSH1 0x3 DUP7 SWAP1 SHL SHR NOT AND PUSH1 0x1 DUP6 SWAP1 SHL OR DUP6 SSTORE PUSH2 0x479 JUMP JUMPDEST PUSH1 0x0 DUP6 DUP2 MSTORE PUSH1 0x20 DUP2 KECCAK256 PUSH1 0x1F NOT DUP7 AND SWAP2 JUMPDEST DUP3 DUP2 LT ISZERO PUSH2 0x1B37 JUMPI DUP9 DUP7 ADD MLOAD DUP3 SSTORE SWAP5 DUP5 ADD SWAP5 PUSH1 0x1 SWAP1 SWAP2 ADD SWAP1 DUP5 ADD PUSH2 0x1B18 JUMP JUMPDEST POP DUP6 DUP3 LT ISZERO PUSH2 0x1B55 JUMPI DUP8 DUP6 ADD MLOAD PUSH1 0x0 NOT PUSH1 0x3 DUP9 SWAP1 SHL PUSH1 0xF8 AND SHR NOT AND DUP2 SSTORE JUMPDEST POP POP POP POP POP PUSH1 0x1 SWAP1 DUP2 SHL ADD SWAP1 SSTORE POP JUMP JUMPDEST DUP2 DUP2 SUB DUP2 DUP2 GT ISZERO PUSH2 0x38B JUMPI PUSH2 0x38B PUSH2 0x1A2B JUMP JUMPDEST DUP1 DUP3 ADD DUP1 DUP3 GT ISZERO PUSH2 0x38B JUMPI PUSH2 0x38B PUSH2 0x1A2B JUMP JUMPDEST PUSH1 0x40 DUP2 MSTORE PUSH1 0x0 PUSH2 0x1B9E PUSH1 0x40 DUP4 ADD DUP6 PUSH2 0x17B6 JUMP JUMPDEST DUP3 DUP2 SUB PUSH1 0x20 DUP5 ADD MSTORE PUSH2 0x1BB0 DUP2 DUP6 PUSH2 0x17B6 JUMP JUMPDEST SWAP6 SWAP5 POP POP POP POP POP JUMP JUMPDEST PUSH1 0x1 PUSH1 0x1 PUSH1 0xA0 SHL SUB DUP7 DUP2 AND DUP3 MSTORE DUP6 AND PUSH1 0x20 DUP3 ADD MSTORE PUSH1 0x40 DUP2 ADD DUP5 SWAP1 MSTORE PUSH1 0x60 DUP2 ADD DUP4 SWAP1 MSTORE PUSH1 0xA0 PUSH1 0x80 DUP3 ADD DUP2 SWAP1 MSTORE PUSH1 0x0 SWAP1 PUSH2 0x1BF3 SWAP1 DUP4 ADD DUP5 PUSH2 0x14BF JUMP JUMPDEST SWAP8 SWAP7 POP POP POP POP POP POP POP JUMP JUMPDEST PUSH1 0x0 PUSH1 0x20 DUP3 DUP5 SUB SLT ISZERO PUSH2 0x1C10 JUMPI PUSH1 0x0 DUP1 REVERT JUMPDEST DUP2 MLOAD PUSH2 0x147B DUP2 PUSH2 0x1448 JUMP JUMPDEST PUSH1 0x1 PUSH1 0x1 PUSH1 0xA0 SHL SUB DUP7 DUP2 AND DUP3 MSTORE DUP6 AND PUSH1 0x20 DUP3 ADD MSTORE PUSH1 0xA0 PUSH1 0x40 DUP3 ADD DUP2 SWAP1 MSTORE PUSH1 0x0 SWAP1 PUSH2 0x1C47 SWAP1 DUP4 ADD DUP7 PUSH2 0x17B6 JUMP JUMPDEST DUP3 DUP2 SUB PUSH1 0x60 DUP5 ADD MSTORE PUSH2 0x1C59 DUP2 DUP7 PUSH2 0x17B6 JUMP JUMPDEST SWAP1 POP DUP3 DUP2 SUB PUSH1 0x80 DUP5 ADD MSTORE PUSH2 0x1C6D DUP2 DUP6 PUSH2 0x14BF JUMP JUMPDEST SWAP9 SWAP8 POP POP POP POP POP POP POP POP JUMP INVALID LOG2 PUSH5 0x6970667358 0x22 SLT KECCAK256 MSIZE 0xC6 POP SWAP11 PUSH15 0xE4267197C02201B35C206C942C012E 0xF7 PUSH0 0xB3 0xA5 MULMOD 0xB3 0xF9 0x5E 0xBA SWAP2 0xDA 0xD9 PUSH5 0x736F6C6343 STOP ADDMOD EQ STOP CALLER "},"methodIdentifiers":{"CHAMPIONSHIP_TROPHY()":"efb02223","balanceOf(address,uint256)":"00fdd58e","balanceOfBatch(address[],uint256[])":"4e1273f4","getPlayerStats(address)":"4fd66eae","isApprovedForAll(address,address)":"e985e9c5","logAction(string)":"522020a8","mintNewTrophy(address,uint256)":"662b1c58","mintTrophy(address)":"c9053254","owner()":"8da5cb5b","playerStats(address)":"cdafbbb6","renounceOwnership()":"715018a6","safeBatchTransferFrom(address,address,uint256[],uint256[],bytes)":"2eb2c2d6","safeTransferFrom(address,address,uint256,uint256,bytes)":"f242432a","setApprovalForAll(address,bool)":"a22cb465","setBaseURI(string)":"55f804b3","supportsInterface(bytes4)":"01ffc9a7","transferOwnership(address)":"f2fde38b","uri(uint256)":"0e89341c"}}}}}