{
  "_format": "hh-sol-artifact-1",
  "contractName": "WWEMonad",
  "sourceName": "contracts/WWEMonad.sol",
  "abi": [
    {
      "inputs": [],
      "stateMutability": "nonpayable",
      "type": "constructor"
    },
    {
      "inputs": [
        {
          "internalType": "address",
          "name": "sender",
          "type": "address"
        },
        {
          "internalType": "uint256",
          "name": "balance",
          "type": "uint256"
        },
        {
          "internalType": "uint256",
          "name": "needed",
          "type": "uint256"
        },
        {
          "internalType": "uint256",
          "name": "tokenId",
          "type": "uint256"
        }
      ],
      "name": "ERC1155InsufficientBalance",
      "type": "error"
    },
    {
      "inputs": [
        {
          "internalType": "address",
          "name": "approver",
          "type": "address"
        }
      ],
      "name": "ERC1155InvalidApprover",
      "type": "error"
    },
    {
      "inputs": [
        {
          "internalType": "uint256",
          "name": "idsLength",
          "type": "uint256"
        },
        {
          "internalType": "uint256",
          "name": "valuesLength",
          "type": "uint256"
        }
      ],
      "name": "ERC1155InvalidArrayLength",
      "type": "error"
    },
    {
      "inputs": [
        {
          "internalType": "address",
          "name": "operator",
          "type": "address"
        }
      ],
      "name": "ERC1155InvalidOperator",
      "type": "error"
    },
    {
      "inputs": [
        {
          "internalType": "address",
          "name": "receiver",
          "type": "address"
        }
      ],
      "name": "ERC1155InvalidReceiver",
      "type": "error"
    },
    {
      "inputs": [
        {
          "internalType": "address",
          "name": "sender",
          "type": "address"
        }
      ],
      "name": "ERC1155InvalidSender",
      "type": "error"
    },
    {
      "inputs": [
        {
          "internalType": "address",
          "name": "operator",
          "type": "address"
        },
        {
          "internalType": "address",
          "name": "owner",
          "type": "address"
        }
      ],
      "name": "ERC1155MissingApprovalForAll",
      "type": "error"
    },
    {
      "inputs": [
        {
          "internalType": "address",
          "name": "owner",
          "type": "address"
        }
      ],
      "name": "OwnableInvalidOwner",
      "type": "error"
    },
    {
      "inputs": [
        {
          "internalType": "address",
          "name": "account",
          "type": "address"
        }
      ],
      "name": "OwnableUnauthorizedAccount",
      "type": "error"
    },
    {
      "anonymous": false,
      "inputs": [
        {
          "indexed": true,
          "internalType": "address",
          "name": "player",
          "type": "address"
        },
        {
          "indexed": false,
          "internalType": "string",
          "name": "action",
          "type": "string"
        }
      ],
      "name": "ActionLogged",
      "type": "event"
    },
    {
      "anonymous": false,
      "inputs": [
        {
          "indexed": true,
          "internalType": "address",
          "name": "account",
          "type": "address"
        },
        {
          "indexed": true,
          "internalType": "address",
          "name": "operator",
          "type": "address"
        },
        {
          "indexed": false,
          "internalType": "bool",
          "name": "approved",
          "type": "bool"
        }
      ],
      "name": "ApprovalForAll",
      "type": "event"
    },
    {
      "anonymous": false,
      "inputs": [
        {
          "indexed": true,
          "internalType": "address",
          "name": "previousOwner",
          "type": "address"
        },
        {
          "indexed": true,
          "internalType": "address",
          "name": "newOwner",
          "type": "address"
        }
      ],
      "name": "OwnershipTransferred",
      "type": "event"
    },
    {
      "anonymous": false,
      "inputs": [
        {
          "indexed": true,
          "internalType": "address",
          "name": "operator",
          "type": "address"
        },
        {
          "indexed": true,
          "internalType": "address",
          "name": "from",
          "type": "address"
        },
        {
          "indexed": true,
          "internalType": "address",
          "name": "to",
          "type": "address"
        },
        {
          "indexed": false,
          "internalType": "uint256[]",
          "name": "ids",
          "type": "uint256[]"
        },
        {
          "indexed": false,
          "internalType": "uint256[]",
          "name": "values",
          "type": "uint256[]"
        }
      ],
      "name": "TransferBatch",
      "type": "event"
    },
    {
      "anonymous": false,
      "inputs": [
        {
          "indexed": true,
          "internalType": "address",
          "name": "operator",
          "type": "address"
        },
        {
          "indexed": true,
          "internalType": "address",
          "name": "from",
          "type": "address"
        },
        {
          "indexed": true,
          "internalType": "address",
          "name": "to",
          "type": "address"
        },
        {
          "indexed": false,
          "internalType": "uint256",
          "name": "id",
          "type": "uint256"
        },
        {
          "indexed": false,
          "internalType": "uint256",
          "name": "value",
          "type": "uint256"
        }
      ],
      "name": "TransferSingle",
      "type": "event"
    },
    {
      "anonymous": false,
      "inputs": [
        {
          "indexed": true,
          "internalType": "address",
          "name": "player",
          "type": "address"
        },
        {
          "indexed": false,
          "internalType": "uint256",
          "name": "tokenId",
          "type": "uint256"
        }
      ],
      "name": "TrophyMinted",
      "type": "event"
    },
    {
      "anonymous": false,
      "inputs": [
        {
          "indexed": false,
          "internalType": "string",
          "name": "value",
          "type": "string"
        },
        {
          "indexed": true,
          "internalType": "uint256",
          "name": "id",
          "type": "uint256"
        }
      ],
      "name": "URI",
      "type": "event"
    },
    {
      "inputs": [],
      "name": "CHAMPIONSHIP_TROPHY",
      "outputs": [
        {
          "internalType": "uint256",
          "name": "",
          "type": "uint256"
        }
      ],
      "stateMutability": "view",
      "type": "function"
    },
    {
      "inputs": [
        {
          "internalType": "address",
          "name": "account",
          "type": "address"
        },
        {
          "internalType": "uint256",
          "name": "id",
          "type": "uint256"
        }
      ],
      "name": "balanceOf",
      "outputs": [
        {
          "internalType": "uint256",
          "name": "",
          "type": "uint256"
        }
      ],
      "stateMutability": "view",
      "type": "function"
    },
    {
      "inputs": [
        {
          "internalType": "address[]",
          "name": "accounts",
          "type": "address[]"
        },
        {
          "internalType": "uint256[]",
          "name": "ids",
          "type": "uint256[]"
        }
      ],
      "name": "balanceOfBatch",
      "outputs": [
        {
          "internalType": "uint256[]",
          "name": "",
          "type": "uint256[]"
        }
      ],
      "stateMutability": "view",
      "type": "function"
    },
    {
      "inputs": [
        {
          "internalType": "address",
          "name": "player",
          "type": "address"
        }
      ],
      "name": "getPlayerStats",
      "outputs": [
        {
          "components": [
            {
              "internalType": "uint256",
              "name": "totalMoves",
              "type": "uint256"
            },
            {
              "internalType": "uint256",
              "name": "specialMoves",
              "type": "uint256"
            },
            {
              "internalType": "uint256",
              "name": "grapples",
              "type": "uint256"
            },
            {
              "internalType": "uint256",
              "name": "ropeBounces",
              "type": "uint256"
            },
            {
              "internalType": "uint256",
              "name": "knockouts",
              "type": "uint256"
            },
            {
              "internalType": "uint256",
              "name": "championships",
              "type": "uint256"
            },
            {
              "internalType": "uint256",
              "name": "lastAction",
              "type": "uint256"
            }
          ],
          "internalType": "struct WWEMonad.PlayerStats",
          "name": "",
          "type": "tuple"
        }
      ],
      "stateMutability": "view",
      "type": "function"
    },
    {
      "inputs": [
        {
          "internalType": "address",
          "name": "account",
          "type": "address"
        },
        {
          "internalType": "address",
          "name": "operator",
          "type": "address"
        }
      ],
      "name": "isApprovedForAll",
      "outputs": [
        {
          "internalType": "bool",
          "name": "",
          "type": "bool"
        }
      ],
      "stateMutability": "view",
      "type": "function"
    },
    {
      "inputs": [
        {
          "internalType": "string",
          "name": "action",
          "type": "string"
        }
      ],
      "name": "logAction",
      "outputs": [],
      "stateMutability": "nonpayable",
      "type": "function"
    },
    {
      "inputs": [
        {
          "internalType": "address",
          "name": "to",
          "type": "address"
        },
        {
          "internalType": "uint256",
          "name": "amount",
          "type": "uint256"
        }
      ],
      "name": "mintNewTrophy",
      "outputs": [],
      "stateMutability": "nonpayable",
      "type": "function"
    },
    {
      "inputs": [
        {
          "internalType": "address",
          "name": "winner",
          "type": "address"
        }
      ],
      "name": "mintTrophy",
      "outputs": [],
      "stateMutability": "nonpayable",
      "type": "function"
    },
    {
      "inputs": [],
      "name": "owner",
      "outputs": [
        {
          "internalType": "address",
          "name": "",
          "type": "address"
        }
      ],
      "stateMutability": "view",
      "type": "function"
    },
    {
      "inputs": [
        {
          "internalType": "address",
          "name": "",
          "type": "address"
        }
      ],
      "name": "playerStats",
      "outputs": [
        {
          "internalType": "uint256",
          "name": "totalMoves",
          "type": "uint256"
        },
        {
          "internalType": "uint256",
          "name": "specialMoves",
          "type": "uint256"
        },
        {
          "internalType": "uint256",
          "name": "grapples",
          "type": "uint256"
        },
        {
          "internalType": "uint256",
          "name": "ropeBounces",
          "type": "uint256"
        },
        {
          "internalType": "uint256",
          "name": "knockouts",
          "type": "uint256"
        },
        {
          "internalType": "uint256",
          "name": "championships",
          "type": "uint256"
        },
        {
          "internalType": "uint256",
          "name": "lastAction",
          "type": "uint256"
        }
      ],
      "stateMutability": "view",
      "type": "function"
    },
    {
      "inputs": [],
      "name": "renounceOwnership",
      "outputs": [],
      "stateMutability": "nonpayable",
      "type": "function"
    },
    {
      "inputs": [
        {
          "internalType": "address",
          "name": "from",
          "type": "address"
        },
        {
          "internalType": "address",
          "name": "to",
          "type": "address"
        },
        {
          "internalType": "uint256[]",
          "name": "ids",
          "type": "uint256[]"
        },
        {
          "internalType": "uint256[]",
          "name": "values",
          "type": "uint256[]"
        },
        {
          "internalType": "bytes",
          "name": "data",
          "type": "bytes"
        }
      ],
      "name": "safeBatchTransferFrom",
      "outputs": [],
      "stateMutability": "nonpayable",
      "type": "function"
    },
    {
      "inputs": [
        {
          "internalType": "address",
          "name": "from",
          "type": "address"
        },
        {
          "internalType": "address",
          "name": "to",
          "type": "address"
        },
        {
          "internalType": "uint256",
          "name": "id",
          "type": "uint256"
        },
        {
          "internalType": "uint256",
          "name": "value",
          "type": "uint256"
        },
        {
          "internalType": "bytes",
          "name": "data",
          "type": "bytes"
        }
      ],
      "name": "safeTransferFrom",
      "outputs": [],
      "stateMutability": "nonpayable",
      "type": "function"
    },
    {
      "inputs": [
        {
          "internalType": "address",
          "name": "operator",
          "type": "address"
        },
        {
          "internalType": "bool",
          "name": "approved",
          "type": "bool"
        }
      ],
      "name": "setApprovalForAll",
      "outputs": [],
      "stateMutability": "nonpayable",
      "type": "function"
    },
    {
      "inputs": [
        {
          "internalType": "string",
          "name": "_newBaseURI",
          "type": "string"
        }
      ],
      "name": "setBaseURI",
      "outputs": [],
      "stateMutability": "nonpayable",
      "type": "function"
    },
    {
      "inputs": [
        {
          "internalType": "bytes4",
          "name": "interfaceId",
          "type": "bytes4"
        }
      ],
      "name": "supportsInterface",
      "outputs": [
        {
          "internalType": "bool",
          "name": "",
          "type": "bool"
        }
      ],
      "stateMutability": "view",
      "type": "function"
    },
    {
      "inputs": [
        {
          "internalType": "address",
          "name": "newOwner",
          "type": "address"
        }
      ],
      "name": "transferOwnership",
      "outputs": [],
      "stateMutability": "nonpayable",
      "type": "function"
    },
    {
      "inputs": [
        {
          "internalType": "uint256",
          "name": "_id",
          "type": "uint256"
        }
      ],
      "name": "uri",
      "outputs": [
        {
          "internalType": "string",
          "name": "",
          "type": "string"
        }
      ],
      "stateMutability": "view",
      "type": "function"
    }
  ],
  "bytecode": "0x608060405260026004553480156200001657600080fd5b5060408051602081019091526000815233906200003381620000b9565b506001600160a01b0381166200006357604051631e4fbdf760e01b81526000600482015260240160405180910390fd5b6200006e81620000cb565b5060408051808201909152601881527f697066733a2f2f516d54726f7068794d657461646174612f00000000000000006020820152600590620000b29082620001c2565b506200028e565b6002620000c78282620001c2565b5050565b600380546001600160a01b038381166001600160a01b0319831681179093556040519116919082907f8be0079c531659141344cd1fd0a4f28419497f9722a3daafe3b4186f6b6457e090600090a35050565b634e487b7160e01b600052604160045260246000fd5b600181811c908216806200014857607f821691505b6020821081036200016957634e487b7160e01b600052602260045260246000fd5b50919050565b601f821115620001bd57600081815260208120601f850160051c81016020861015620001985750805b601f850160051c820191505b81811015620001b957828155600101620001a4565b5050505b505050565b81516001600160401b03811115620001de57620001de6200011d565b620001f681620001ef845462000133565b846200016f565b602080601f8311600181146200022e5760008415620002155750858301515b600019600386901b1c1916600185901b178555620001b9565b600085815260208120601f198616915b828110156200025f578886015182559484019460019091019084016200023e565b50858210156200027e5787850151600019600388901b60f8161c191681555b5050505050600190811b01905550565b611caf806200029e6000396000f3fe608060405234801561001057600080fd5b50600436106101155760003560e01c8063715018a6116100a2578063cdafbbb611610071578063cdafbbb6146102a3578063e985e9c514610328578063efb022231461033b578063f242432a14610343578063f2fde38b1461035657600080fd5b8063715018a61461025a5780638da5cb5b14610262578063a22cb4651461027d578063c90532541461029057600080fd5b80634e1273f4116100e95780634e1273f4146101985780634fd66eae146101b8578063522020a81461022157806355f804b314610234578063662b1c581461024757600080fd5b8062fdd58e1461011a57806301ffc9a7146101405780630e89341c146101635780632eb2c2d614610183575b600080fd5b61012d61012836600461141e565b610369565b6040519081526020015b60405180910390f35b61015361014e36600461145e565b610391565b6040519015158152602001610137565b610176610171366004611482565b6103e1565b60405161013791906114eb565b61019661019136600461164c565b610415565b005b6101ab6101a63660046116f6565b610481565b60405161013791906117f1565b6101cb6101c6366004611804565b610556565b6040516101379190600060e082019050825182526020830151602083015260408301516040830152606083015160608301526080830151608083015260a083015160a083015260c083015160c083015292915050565b61019661022f36600461181f565b6105ff565b61019661024236600461181f565b610854565b61019661025536600461141e565b61086c565b6101966108ee565b6003546040516001600160a01b039091168152602001610137565b61019661028b366004611870565b610902565b61019661029e366004611804565b61090d565b6102f36102b1366004611804565b60066020528060005260406000206000915090508060000154908060010154908060020154908060030154908060040154908060050154908060060154905087565b604080519788526020880196909652948601939093526060850191909152608084015260a083015260c082015260e001610137565b6101536103363660046118ac565b610a09565b61012d600181565b6101966103513660046118df565b610a37565b610196610364366004611804565b610a96565b6000818152602081815260408083206001600160a01b03861684529091529020545b92915050565b60006001600160e01b03198216636cdb3d1360e11b14806103c257506001600160e01b031982166303a24d0760e21b145b8061038b57506301ffc9a760e01b6001600160e01b031983161461038b565b606060056103ee83610ad4565b6040516020016103ff92919061197e565b6040516020818303038152906040529050919050565b336001600160a01b038616811480159061043657506104348682610a09565b155b1561046c5760405163711bec9160e11b81526001600160a01b038083166004830152871660248201526044015b60405180910390fd5b6104798686868686610b67565b505050505050565b606081518351146104b25781518351604051635b05999160e01b815260048101929092526024820152604401610463565b6000835167ffffffffffffffff8111156104ce576104ce6114fe565b6040519080825280602002602001820160405280156104f7578160200160208202803683370190505b50905060005b845181101561054e5760208082028601015161052190602080840287010151610369565b82828151811061053357610533611a15565b602090810291909101015261054781611a41565b90506104fd565b509392505050565b6105966040518060e00160405280600081526020016000815260200160008152602001600081526020016000815260200160008152602001600081525090565b506001600160a01b0316600090815260066020818152604092839020835160e081018552815481526001820154928101929092526002810154938201939093526003830154606082015260048301546080820152600583015460a082015291015460c082015290565b600061062782604051806040016040528060048152602001636d6f766560e01b815250610bce565b90506000610659836040518060400160405280600c81526020016b7370656369616c5f6d6f766560a01b815250610bce565b90506000610686846040518060400160405280600781526020016667726170706c6560c81b815250610bce565b905060006106b7856040518060400160405280600b81526020016a726f70655f626f756e636560a81b815250610bce565b905060006106e586604051806040016040528060088152602001671adb9bd8dadbdd5d60c21b815250610bce565b90506000610717876040518060400160405280600c81526020016b06368616d70696f6e736869760a41b815250610bce565b905085156107445733600090815260066020526040812080549161073a83611a41565b91905055506107fe565b84156107685733600090815260066020526040812060010180549161073a83611a41565b831561078c5733600090815260066020526040812060020180549161073a83611a41565b82156107b05733600090815260066020526040812060030180549161073a83611a41565b81156107d45733600090815260066020526040812060040180549161073a83611a41565b80156107fe573360009081526006602052604081206005018054916107f883611a41565b91905055505b3360008181526006602081905260409182902042910155517fcf4427363692826484588652734fbdfe66066252ce5898a5c9d20416bcadec5390610843908a906114eb565b60405180910390a250505050505050565b61085c610cad565b60056108688282611aa5565b5050565b610874610cad565b60048054908190600061088683611a41565b91905055506108a683828460405180602001604052806000815250610cda565b826001600160a01b03167f40e0fad75d161c82d49af9e03ec076efa4ff442a3954c75339fd02218374e2dc826040516108e191815260200190565b60405180910390a2505050565b6108f6610cad565b6109006000610d37565b565b610868338383610d89565b6003546001600160a01b031633148061092e5750336001600160a01b038216145b61097a5760405162461bcd60e51b815260206004820152601d60248201527f4e6f7420617574686f72697a656420746f206d696e742074726f7068790000006044820152606401610463565b6109968160018060405180602001604052806000815250610cda565b6001600160a01b03811660009081526006602052604081206005018054916109bd83611a41565b9190505550806001600160a01b03167f40e0fad75d161c82d49af9e03ec076efa4ff442a3954c75339fd02218374e2dc60016040516109fe91815260200190565b60405180910390a250565b6001600160a01b03918216600090815260016020908152604080832093909416825291909152205460ff1690565b336001600160a01b0386168114801590610a585750610a568682610a09565b155b15610a895760405163711bec9160e11b81526001600160a01b03808316600483015287166024820152604401610463565b6104798686868686610e1f565b610a9e610cad565b6001600160a01b038116610ac857604051631e4fbdf760e01b815260006004820152602401610463565b610ad181610d37565b50565b60606000610ae183610ead565b600101905060008167ffffffffffffffff811115610b0157610b016114fe565b6040519080825280601f01601f191660200182016040528015610b2b576020820181803683370190505b5090508181016020015b600019016f181899199a1a9b1b9c1cb0b131b232b360811b600a86061a8153600a8504945084610b3557509392505050565b6001600160a01b038416610b9157604051632bfa23e760e11b815260006004820152602401610463565b6001600160a01b038516610bba57604051626a0d4560e21b815260006004820152602401610463565b610bc78585858585610f85565b5050505050565b81518151600091849184911015610bea5760009250505061038b565b60005b81518351610bfb9190611b65565b8111610ca157600160005b8351811015610c7a57838181518110610c2157610c21611a15565b01602001516001600160f81b03191685610c3b8386611b78565b81518110610c4b57610c4b611a15565b01602001516001600160f81b03191614610c685760009150610c7a565b80610c7281611a41565b915050610c06565b508015610c8e57600194505050505061038b565b5080610c9981611a41565b915050610bed565b50600095945050505050565b6003546001600160a01b031633146109005760405163118cdaa760e01b8152336004820152602401610463565b6001600160a01b038416610d0457604051632bfa23e760e11b815260006004820152602401610463565b60408051600180825260208201869052818301908152606082018590526080820190925290610479600087848487610f85565b600380546001600160a01b038381166001600160a01b0319831681179093556040519116919082907f8be0079c531659141344cd1fd0a4f28419497f9722a3daafe3b4186f6b6457e090600090a35050565b6001600160a01b038216610db25760405162ced3e160e81b815260006004820152602401610463565b6001600160a01b03838116600081815260016020908152604080832094871680845294825291829020805460ff191686151590811790915591519182527f17307eab39ab6107e8899845ad3d59bd9653f200f220920489ca2b5937696c31910160405180910390a3505050565b6001600160a01b038416610e4957604051632bfa23e760e11b815260006004820152602401610463565b6001600160a01b038516610e7257604051626a0d4560e21b815260006004820152602401610463565b60408051600180825260208201869052818301908152606082018590526080820190925290610ea48787848487610f85565b50505050505050565b60008072184f03e93ff9f4daa797ed6e38ed64bf6a1f0160401b8310610eec5772184f03e93ff9f4daa797ed6e38ed64bf6a1f0160401b830492506040015b6d04ee2d6d415b85acef81000000008310610f18576d04ee2d6d415b85acef8100000000830492506020015b662386f26fc100008310610f3657662386f26fc10000830492506010015b6305f5e1008310610f4e576305f5e100830492506008015b6127108310610f6257612710830492506004015b60648310610f74576064830492506002015b600a831061038b5760010192915050565b610f9185858585610fd8565b6001600160a01b03841615610bc75782513390600103610fca5760208481015190840151610fc38389898585896111f5565b5050610479565b610479818787878787611319565b80518251146110075781518151604051635b05999160e01b815260048101929092526024820152604401610463565b3360005b8351811015611116576020818102858101820151908501909101516001600160a01b038816156110be576000828152602081815260408083206001600160a01b038c16845290915290205481811015611097576040516303dee4c560e01b81526001600160a01b038a166004820152602481018290526044810183905260648101849052608401610463565b6000838152602081815260408083206001600160a01b038d16845290915290209082900390555b6001600160a01b03871615611103576000828152602081815260408083206001600160a01b038b168452909152812080548392906110fd908490611b78565b90915550505b50508061110f90611a41565b905061100b565b5082516001036111975760208301516000906020840151909150856001600160a01b0316876001600160a01b0316846001600160a01b03167fc3d58168c5ae7397731d063d5bbf3d657854427343f4c083240f7aacaa2d0f628585604051611188929190918252602082015260400190565b60405180910390a45050610bc7565b836001600160a01b0316856001600160a01b0316826001600160a01b03167f4a39dc06d4c0dbc64b70af90fd698a233a518aa5d07e595d983b8c0526c8f7fb86866040516111e6929190611b8b565b60405180910390a45050505050565b6001600160a01b0384163b156104795760405163f23a6e6160e01b81526001600160a01b0385169063f23a6e61906112399089908990889088908890600401611bb9565b6020604051808303816000875af1925050508015611274575060408051601f3d908101601f1916820190925261127191810190611bfe565b60015b6112dd573d8080156112a2576040519150601f19603f3d011682016040523d82523d6000602084013e6112a7565b606091505b5080516000036112d557604051632bfa23e760e11b81526001600160a01b0386166004820152602401610463565b805181602001fd5b6001600160e01b0319811663f23a6e6160e01b14610ea457604051632bfa23e760e11b81526001600160a01b0386166004820152602401610463565b6001600160a01b0384163b156104795760405163bc197c8160e01b81526001600160a01b0385169063bc197c819061135d9089908990889088908890600401611c1b565b6020604051808303816000875af1925050508015611398575060408051601f3d908101601f1916820190925261139591810190611bfe565b60015b6113c6573d8080156112a2576040519150601f19603f3d011682016040523d82523d6000602084013e6112a7565b6001600160e01b0319811663bc197c8160e01b14610ea457604051632bfa23e760e11b81526001600160a01b0386166004820152602401610463565b80356001600160a01b038116811461141957600080fd5b919050565b6000806040838503121561143157600080fd5b61143a83611402565b946020939093013593505050565b6001600160e01b031981168114610ad157600080fd5b60006020828403121561147057600080fd5b813561147b81611448565b9392505050565b60006020828403121561149457600080fd5b5035919050565b60005b838110156114b657818101518382015260200161149e565b50506000910152565b600081518084526114d781602086016020860161149b565b601f01601f19169290920160200192915050565b60208152600061147b60208301846114bf565b634e487b7160e01b600052604160045260246000fd5b604051601f8201601f1916810167ffffffffffffffff8111828210171561153d5761153d6114fe565b604052919050565b600067ffffffffffffffff82111561155f5761155f6114fe565b5060051b60200190565b600082601f83011261157a57600080fd5b8135602061158f61158a83611545565b611514565b82815260059290921b840181019181810190868411156115ae57600080fd5b8286015b848110156115c957803583529183019183016115b2565b509695505050505050565b600067ffffffffffffffff8311156115ee576115ee6114fe565b611601601f8401601f1916602001611514565b905082815283838301111561161557600080fd5b828260208301376000602084830101529392505050565b600082601f83011261163d57600080fd5b61147b838335602085016115d4565b600080600080600060a0868803121561166457600080fd5b61166d86611402565b945061167b60208701611402565b9350604086013567ffffffffffffffff8082111561169857600080fd5b6116a489838a01611569565b945060608801359150808211156116ba57600080fd5b6116c689838a01611569565b935060808801359150808211156116dc57600080fd5b506116e98882890161162c565b9150509295509295909350565b6000806040838503121561170957600080fd5b823567ffffffffffffffff8082111561172157600080fd5b818501915085601f83011261173557600080fd5b8135602061174561158a83611545565b82815260059290921b8401810191818101908984111561176457600080fd5b948201945b838610156117895761177a86611402565b82529482019490820190611769565b9650508601359250508082111561179f57600080fd5b506117ac85828601611569565b9150509250929050565b600081518084526020808501945080840160005b838110156117e6578151875295820195908201906001016117ca565b509495945050505050565b60208152600061147b60208301846117b6565b60006020828403121561181657600080fd5b61147b82611402565b60006020828403121561183157600080fd5b813567ffffffffffffffff81111561184857600080fd5b8201601f8101841361185957600080fd5b611868848235602084016115d4565b949350505050565b6000806040838503121561188357600080fd5b61188c83611402565b9150602083013580151581146118a157600080fd5b809150509250929050565b600080604083850312156118bf57600080fd5b6118c883611402565b91506118d660208401611402565b90509250929050565b600080600080600060a086880312156118f757600080fd5b61190086611402565b945061190e60208701611402565b93506040860135925060608601359150608086013567ffffffffffffffff81111561193857600080fd5b6116e98882890161162c565b600181811c9082168061195857607f821691505b60208210810361197857634e487b7160e01b600052602260045260246000fd5b50919050565b600080845461198c81611944565b600182811680156119a457600181146119b9576119e8565b60ff19841687528215158302870194506119e8565b8860005260208060002060005b858110156119df5781548a8201529084019082016119c6565b50505082870194505b5050505083516119fc81836020880161149b565b64173539b7b760d91b9101908152600501949350505050565b634e487b7160e01b600052603260045260246000fd5b634e487b7160e01b600052601160045260246000fd5b600060018201611a5357611a53611a2b565b5060010190565b601f821115611aa057600081815260208120601f850160051c81016020861015611a815750805b601f850160051c820191505b8181101561047957828155600101611a8d565b505050565b815167ffffffffffffffff811115611abf57611abf6114fe565b611ad381611acd8454611944565b84611a5a565b602080601f831160018114611b085760008415611af05750858301515b600019600386901b1c1916600185901b178555610479565b600085815260208120601f198616915b82811015611b3757888601518255948401946001909101908401611b18565b5085821015611b555787850151600019600388901b60f8161c191681555b5050505050600190811b01905550565b8181038181111561038b5761038b611a2b565b8082018082111561038b5761038b611a2b565b604081526000611b9e60408301856117b6565b8281036020840152611bb081856117b6565b95945050505050565b6001600160a01b03868116825285166020820152604081018490526060810183905260a060808201819052600090611bf3908301846114bf565b979650505050505050565b600060208284031215611c1057600080fd5b815161147b81611448565b6001600160a01b0386811682528516602082015260a060408201819052600090611c47908301866117b6565b8281036060840152611c5981866117b6565b90508281036080840152611c6d81856114bf565b9897505050505050505056fea264697066735822122059c6509a6ee4267197c02201b35c206c942c012ef75fb3a509b3f95eba91dad964736f6c63430008140033",
  "linkReferences": {},
  "deployedLinkReferences": {}
}